{"abi":[{"type":"constructor","inputs":[{"name":"_factory","type":"address","internalType":"address"},{"name":"_WETH","type":"address","internalType":"address"},{"name":"_USDT","type":"address","internalType":"address"}],"stateMutability":"nonpayable"},{"type":"function","name":"initiateFlashLoan","inputs":[{"name":"amount0","type":"uint256","internalType":"uint256"},{"name":"amount1","type":"uint256","internalType":"uint256"}],"outputs":[],"stateMutability":"nonpayable"},{"type":"function","name":"uniswapV2FlashCallback","inputs":[{"name":"amount0","type":"uint256","internalType":"uint256"},{"name":"amount1","type":"uint256","internalType":"uint256"},{"name":"data","type":"bytes","internalType":"bytes"}],"outputs":[],"stateMutability":"nonpayable"}],"bytecode":{"object":"0x60e060405234801561001057600080fd5b50604051610a43380380610a4383398101604081905261002f91610068565b6001600160a01b0392831660805290821660a0521660c0526100ab565b80516001600160a01b038116811461006357600080fd5b919050565b60008060006060848603121561007d57600080fd5b6100868461004c565b92506100946020850161004c565b91506100a26040850161004c565b90509250925092565b60805160a05160c0516109466100fd6000396000818161014f015281816103780152610459015260008181610127015281816102e6015261043101526000818161017d015261048401526109466000f3fe608060405234801561001057600080fd5b50600436106100365760003560e01c80630a7d47ef1461003b5780639c3d59f214610050575b600080fd5b61004e610049366004610673565b610063565b005b61004e61005e3660046106f6565b61041a565b600061007182840184610718565b90506100b16040518060400160405280601981526020017f696e20756e69737761705632466c61736843616c6c6261636b00000000000000815250610573565b6100d36040518060600160405280602381526020016108c360239139826105b9565b600381101561027d57600060646100eb876069610747565b6100f59190610764565b905060006064610106876069610747565b6101109190610764565b60405163e6a4390560e01b81526001600160a01b037f0000000000000000000000000000000000000000000000000000000000000000811660048301527f0000000000000000000000000000000000000000000000000000000000000000811660248301529192506000917f0000000000000000000000000000000000000000000000000000000000000000169063e6a4390590604401602060405180830381865afa1580156101c4573d6000803e3d6000fd5b505050506040513d601f19601f820116820180604052508101906101e89190610786565b90506001600160a01b03811663490e6cbc3085856102078960016107b6565b60405160200161021991815260200190565b6040516020818303038152906040526040518563ffffffff1660e01b8152600401610247949392919061080f565b600060405180830381600087803b15801561026157600080fd5b505af1158015610275573d6000803e3d6000fd5b505050505050505b60006103e861028d606488610747565b6102979190610764565b6102a190876107b6565b905060006103e86102b3606488610747565b6102bd9190610764565b6102c790876107b6565b60405163a9059cbb60e01b8152336004820152602481018490529091507f00000000000000000000000000000000000000000000000000000000000000006001600160a01b03169063a9059cbb906044016020604051808303816000875af1158015610337573d6000803e3d6000fd5b505050506040513d601f19601f8201168201806040525081019061035b9190610846565b5060405163a9059cbb60e01b8152336004820152602481018290527f00000000000000000000000000000000000000000000000000000000000000006001600160a01b03169063a9059cbb906044016020604051808303816000875af11580156103c9573d6000803e3d6000fd5b505050506040513d601f19601f820116820180604052508101906103ed9190610846565b506104116040518060600160405280602b81526020016108e6602b91398383610602565b50505050505050565b60405163e6a4390560e01b81526001600160a01b037f0000000000000000000000000000000000000000000000000000000000000000811660048301527f0000000000000000000000000000000000000000000000000000000000000000811660248301526000917f00000000000000000000000000000000000000000000000000000000000000009091169063e6a4390590604401602060405180830381865afa1580156104cd573d6000803e3d6000fd5b505050506040513d601f19601f820116820180604052508101906104f19190610786565b60408051600160208201529192506001600160a01b0383169163490e6cbc91309187918791016040516020818303038152906040526040518563ffffffff1660e01b8152600401610545949392919061080f565b600060405180830381600087803b15801561055f57600080fd5b505af1158015610411573d6000803e3d6000fd5b6105b6816040516024016105879190610868565b60408051601f198184030181529190526020810180516001600160e01b031663104c13eb60e21b17905261064e565b50565b6105fe82826040516024016105cf92919061087b565b60408051601f198184030181529190526020810180516001600160e01b0316632d839cb360e21b17905261064e565b5050565b61064983838360405160240161061a9392919061089d565b60408051601f198184030181529190526020810180516001600160e01b031663ca47c4eb60e01b17905261064e565b505050565b6105b68160006a636f6e736f6c652e6c6f679050600080835160208501845afa505050565b6000806000806060858703121561068957600080fd5b8435935060208501359250604085013567ffffffffffffffff8111156106ae57600080fd5b8501601f810187136106bf57600080fd5b803567ffffffffffffffff8111156106d657600080fd5b8760208284010111156106e857600080fd5b949793965060200194505050565b6000806040838503121561070957600080fd5b50508035926020909101359150565b60006020828403121561072a57600080fd5b5035919050565b634e487b7160e01b600052601160045260246000fd5b808202811582820484141761075e5761075e610731565b92915050565b60008261078157634e487b7160e01b600052601260045260246000fd5b500490565b60006020828403121561079857600080fd5b81516001600160a01b03811681146107af57600080fd5b9392505050565b8082018082111561075e5761075e610731565b6000815180845260005b818110156107ef576020818501810151868301820152016107d3565b506000602082860101526020601f19601f83011685010191505092915050565b60018060a01b038516815283602082015282604082015260806060820152600061083c60808301846107c9565b9695505050505050565b60006020828403121561085857600080fd5b815180151581146107af57600080fd5b6020815260006107af60208301846107c9565b60408152600061088e60408301856107c9565b90508260208301529392505050565b6060815260006108b060608301866107c9565b6020830194909452506040015291905056fe496e20666c6173682063616c6c6261636b2c206e6573746564206c6576656c3a202564466c617368206c6f616e207265706169642c20616d6f756e74303a2025642c20616d6f756e74313a202564a26469706673582212206286672bac75c5f8c14a1fc4c3a52f675c24bcd27c81e20f2e2090d8b610bf8c64736f6c634300081c0033","linkReferences":{}},"methodIdentifiers":{"initiateFlashLoan(uint256,uint256)":"9c3d59f2","uniswapV2FlashCallback(uint256,uint256,bytes)":"0a7d47ef"},"id":23}