{"abi":[{"type":"constructor","inputs":[],"stateMutability":"nonpayable"},{"type":"function","name":"flashloan","inputs":[{"name":"wethAmount","type":"uint256","internalType":"uint256"}],"outputs":[],"stateMutability":"nonpayable"},{"type":"function","name":"uniswapV2Call","inputs":[{"name":"sender","type":"address","internalType":"address"},{"name":"amount0","type":"uint256","internalType":"uint256"},{"name":"amount1","type":"uint256","internalType":"uint256"},{"name":"data","type":"bytes","internalType":"bytes"}],"outputs":[],"stateMutability":"nonpayable"}],"bytecode":{"object":"0x60a060405234801561001057600080fd5b5060405163e6a4390560e01b8152736b175474e89094c44da98b954eedeac495271d0f600482015273c02aaa39b223fe8d0a0e5c4f27ead9083c756cc26024820152735c69bee701ef814a2b6a3edd4b1652cb9cc5aa6f9063e6a4390590604401602060405180830381865afa15801561008e573d6000803e3d6000fd5b505050506040513d601f19601f820116820180604052508101906100b291906100c3565b6001600160a01b03166080526100f3565b6000602082840312156100d557600080fd5b81516001600160a01b03811681146100ec57600080fd5b9392505050565b60805161064e61011560003960008181610299015261037a015261064e6000f3fe608060405234801561001057600080fd5b50600436106100365760003560e01c806310d1e85c1461003b57806365b6c4f014610050575b600080fd5b61004e61004936600461040c565b610063565b005b61004e61005e3660046104a4565b610338565b6000336001600160a01b0316630dfe16816040518163ffffffff1660e01b8152600401602060405180830381865afa1580156100a3573d6000803e3d6000fd5b505050506040513d601f19601f820116820180604052508101906100c791906104bd565b90506000336001600160a01b031663d21220a76040518163ffffffff1660e01b8152600401602060405180830381865afa158015610109573d6000803e3d6000fd5b505050506040513d601f19601f8201168201806040525081019061012d91906104bd565b60405163e6a4390560e01b81526001600160a01b03808516600483015282166024820152909150735c69bee701ef814a2b6a3edd4b1652cb9cc5aa6f9063e6a4390590604401602060405180830381865afa158015610190573d6000803e3d6000fd5b505050506040513d601f19601f820116820180604052508101906101b491906104bd565b6001600160a01b0316336001600160a01b0316146101d4576101d46104e1565b6000806101e3858701876104f7565b90925090506001600160a01b03821673c02aaa39b223fe8d0a0e5c4f27ead9083c756cc21461024f5760405162461bcd60e51b81526020600482015260146024820152730e8ded6cadc40c4dee4e4deee40427a40ae8aa8960631b604482015260640160405180910390fd5b60006103e561025f896003610539565b6102699190610556565b610274906001610578565b90506000610282828a610578565b60405163a9059cbb60e01b81526001600160a01b037f00000000000000000000000000000000000000000000000000000000000000001660048201526024810182905290915073c02aaa39b223fe8d0a0e5c4f27ead9083c756cc29063a9059cbb906044016020604051808303816000875af1158015610306573d6000803e3d6000fd5b505050506040513d601f19601f8201168201806040525081019061032a919061058b565b505050505050505050505050565b6040805173c02aaa39b223fe8d0a0e5c4f27ead9083c756cc26020820152808201839052815180820383018152606082019283905263022c0d9f60e01b9092527f00000000000000000000000000000000000000000000000000000000000000006001600160a01b03169063022c0d9f906103be906000908690309087906064016105ad565b600060405180830381600087803b1580156103d857600080fd5b505af11580156103ec573d6000803e3d6000fd5b505050505050565b6001600160a01b038116811461040957600080fd5b50565b60008060008060006080868803121561042457600080fd5b853561042f816103f4565b94506020860135935060408601359250606086013567ffffffffffffffff81111561045957600080fd5b8601601f8101881361046a57600080fd5b803567ffffffffffffffff81111561048157600080fd5b88602082840101111561049357600080fd5b959894975092955050506020019190565b6000602082840312156104b657600080fd5b5035919050565b6000602082840312156104cf57600080fd5b81516104da816103f4565b9392505050565b634e487b7160e01b600052600160045260246000fd5b6000806040838503121561050a57600080fd5b8235610515816103f4565b946020939093013593505050565b634e487b7160e01b600052601160045260246000fd5b808202811582820484141761055057610550610523565b92915050565b60008261057357634e487b7160e01b600052601260045260246000fd5b500490565b8082018082111561055057610550610523565b60006020828403121561059d57600080fd5b815180151581146104da57600080fd5b84815283602082015260018060a01b0383166040820152608060608201526000825180608084015260005b818110156105f557602081860181015160a08684010152016105d8565b50600060a0828501015260a0601f19601f8301168401019150509594505050505056fea2646970667358221220dbb5acf71c10aa334cdfa92e45edd03ef13794e93de8b92e4d543ebfc40d46e864736f6c634300081c0033","linkReferences":{}},"methodIdentifiers":{"flashloan(uint256)":"65b6c4f0","uniswapV2Call(address,uint256,uint256,bytes)":"10d1e85c"},"id":24}