{"abi":[{"type":"constructor","inputs":[{"name":"_pool","type":"address","internalType":"address"}],"stateMutability":"nonpayable"},{"type":"function","name":"initiateFlashLoan","inputs":[{"name":"amount0","type":"uint256","internalType":"uint256"},{"name":"amount1","type":"uint256","internalType":"uint256"}],"outputs":[],"stateMutability":"nonpayable"},{"type":"function","name":"nestedLoansCount","inputs":[],"outputs":[{"name":"","type":"uint256","internalType":"uint256"}],"stateMutability":"view"},{"type":"function","name":"pool","inputs":[],"outputs":[{"name":"","type":"address","internalType":"contract IUniswapV3Pool"}],"stateMutability":"view"},{"type":"function","name":"uniswapV3FlashCallback","inputs":[{"name":"amount0","type":"uint256","internalType":"uint256"},{"name":"amount1","type":"uint256","internalType":"uint256"},{"name":"data","type":"bytes","internalType":"bytes"}],"outputs":[],"stateMutability":"nonpayable"}],"bytecode":{"object":"0x6080604052348015600f57600080fd5b5060405161073e38038061073e833981016040819052602c916050565b600080546001600160a01b0319166001600160a01b0392909216919091179055607e565b600060208284031215606157600080fd5b81516001600160a01b0381168114607757600080fd5b9392505050565b6106b18061008d6000396000f3fe608060405234801561001057600080fd5b506004361061004c5760003560e01c806316f0115b1461005157806386e36b8f146100815780639c3d59f214610098578063e9cbafb0146100ad575b600080fd5b600054610064906001600160a01b031681565b6040516001600160a01b0390911681526020015b60405180910390f35b61008a60015481565b604051908152602001610078565b6100ab6100a6366004610459565b6100c0565b005b6100ab6100bb36600461047b565b610195565b600180549060006100d083610514565b919050555061010b60405180604001604052806015815260200174034b71034b734ba34b0ba32a33630b9b42637b0b71605d1b8152506103ee565b6000546001546040805160208082019390935281518082039093018352808201918290526312439b2f60e21b9091526001600160a01b039092169163490e6cbc9161015f9130918791879190604401610573565b600060405180830381600087803b15801561017957600080fd5b505af115801561018d573d6000803e3d6000fd5b505050505050565b6101d36040518060400160405280601981526020017f696e20756e69737761705633466c61736843616c6c6261636b000000000000008152506103ee565b6000546001600160a01b0316331461023d5760405162461bcd60e51b8152602060048201526024808201527f4f6e6c792074686520706f6f6c2063616e2063616c6c20746869732066756e636044820152633a34b7b760e11b606482015260840160405180910390fd5b600061024b828401846105aa565b9050806000036102ed5760006102626002876105c3565b6000805460408051600160208201529394506001600160a01b039091169263490e6cbc9230928692016040516020818303038152906040526040518563ffffffff1660e01b81526004016102b99493929190610573565b600060405180830381600087803b1580156102d357600080fd5b505af11580156102e7573d6000803e3d6000fd5b50505050505b60006103e56102fd8760036105e5565b61030791906105c3565b610312906001610602565b905060006103e56103248760036105e5565b61032e91906105c3565b610339906001610602565b9050826001036103e55761036a6040518060400160405280600681526020016508cd2dcd2e6d60d31b8152506103ee565b6000546001600160a01b031663490e6cbc30610386858b610602565b610390858b610602565b89896040518663ffffffff1660e01b81526004016103b2959493929190610615565b600060405180830381600087803b1580156103cc57600080fd5b505af11580156103e0573d6000803e3d6000fd5b505050505b50505050505050565b610431816040516024016104029190610661565b60408051601f198184030181529190526020810180516001600160e01b031663104c13eb60e21b179052610434565b50565b6104318160006a636f6e736f6c652e6c6f679050600080835160208501845afa505050565b6000806040838503121561046c57600080fd5b50508035926020909101359150565b6000806000806060858703121561049157600080fd5b8435935060208501359250604085013567ffffffffffffffff8111156104b657600080fd5b8501601f810187136104c757600080fd5b803567ffffffffffffffff8111156104de57600080fd5b8760208284010111156104f057600080fd5b949793965060200194505050565b634e487b7160e01b600052601160045260246000fd5b600060018201610526576105266104fe565b5060010190565b6000815180845260005b8181101561055357602081850181015186830182015201610537565b506000602082860101526020601f19601f83011685010191505092915050565b60018060a01b03851681528360208201528260408201526080606082015260006105a0608083018461052d565b9695505050505050565b6000602082840312156105bc57600080fd5b5035919050565b6000826105e057634e487b7160e01b600052601260045260246000fd5b500490565b80820281158282048414176105fc576105fc6104fe565b92915050565b808201808211156105fc576105fc6104fe565b60018060a01b038616815284602082015283604082015260806060820152816080820152818360a0830137600081830160a090810191909152601f909201601f19160101949350505050565b602081526000610674602083018461052d565b939250505056fea26469706673582212201fcb2d5b206c09b4c007c49b7b27cc95d96315c103efd653852d1d6f9ee9db2c64736f6c634300081c0033","linkReferences":{}},"methodIdentifiers":{"initiateFlashLoan(uint256,uint256)":"9c3d59f2","nestedLoansCount()":"86e36b8f","pool()":"16f0115b","uniswapV3FlashCallback(uint256,uint256,bytes)":"e9cbafb0"},"id":23}