{"abi":[{"type":"constructor","inputs":[],"stateMutability":"nonpayable"},{"type":"function","name":"flashloan","inputs":[{"name":"wethAmount","type":"uint256","internalType":"uint256"}],"outputs":[],"stateMutability":"nonpayable"},{"type":"function","name":"getPool","inputs":[{"name":"_token0","type":"address","internalType":"address"},{"name":"_token1","type":"address","internalType":"address"},{"name":"_fee","type":"uint24","internalType":"uint24"}],"outputs":[{"name":"","type":"address","internalType":"address"}],"stateMutability":"pure"},{"type":"function","name":"uniswapV3FlashCallback","inputs":[{"name":"fee0","type":"uint256","internalType":"uint256"},{"name":"fee1","type":"uint256","internalType":"uint256"},{"name":"data","type":"bytes","internalType":"bytes"}],"outputs":[],"stateMutability":"nonpayable"}],"bytecode":{"object":"0x60a060405234801561001057600080fd5b50610046736b175474e89094c44da98b954eedeac495271d0f73c02aaa39b223fe8d0a0e5c4f27ead9083c756cc2610bb8610057565b6001600160a01b03166080526101f5565b60008061006585858561008e565b9050610085731f98431c8ad98523631ae4a59f267346ea31f984826100f9565b95945050505050565b6040805160608101825260008082526020820181905291810191909152826001600160a01b0316846001600160a01b031611156100c9579192915b50604080516060810182526001600160a01b03948516815292909316602083015262ffffff169181019190915290565b600081602001516001600160a01b031682600001516001600160a01b03161061012157600080fd5b815160208084015160408086015181516001600160a01b0395861681860152949092168482015262ffffff90911660608085019190915281518085038201815260808501909252815191909201207fff0000000000000000000000000000000000000000000000000000000000000060a08401529085901b6001600160601b03191660a183015260b58201527fe34f199b19b2b4f47f68442619d555527d244f78a3297ea89325f843f87b8b5460d582015260f50160408051601f1981840301815291905280516020909101209392505050565b6080516106aa61021e600039600081816101160152818161019b015261029101526106aa6000f3fe608060405234801561001057600080fd5b50600436106100415760003560e01c80631698ee821461004657806365b6c4f014610075578063e9cbafb01461008a575b600080fd5b61005961005436600461049e565b61009d565b6040516001600160a01b03909116815260200160405180910390f35b6100886100833660046104f1565b6100d4565b005b61008861009836600461050a565b610190565b6000806100ab858585610332565b90506100cb731f98431c8ad98523631ae4a59f267346ea31f9848261039d565b95945050505050565b6040805173c02aaa39b223fe8d0a0e5c4f27ead9083c756cc2602082015280820183905281518082038301815260608201928390526312439b2f60e21b9092527f00000000000000000000000000000000000000000000000000000000000000006001600160a01b03169063490e6cbc9061015a9030906000908790879060640161058d565b600060405180830381600087803b15801561017457600080fd5b505af1158015610188573d6000803e3d6000fd5b505050505050565b336001600160a01b037f000000000000000000000000000000000000000000000000000000000000000016146101fe5760405162461bcd60e51b815260206004820152600e60248201526d1b9bdd08185d5d1a1bdc9a5e995960921b60448201526064015b60405180910390fd5b60008061020d838501856105f8565b90925090506001600160a01b03821673c02aaa39b223fe8d0a0e5c4f27ead9083c756cc2146102755760405162461bcd60e51b81526020600482015260146024820152730e8ded6cadc40c4dee4e4deee40427a40ae8aa8960631b60448201526064016101f5565b73c02aaa39b223fe8d0a0e5c4f27ead9083c756cc263a9059cbb7f00000000000000000000000000000000000000000000000000000000000000006102ba8885610624565b6040516001600160e01b031960e085901b1681526001600160a01b03909216600483015260248201526044016020604051808303816000875af1158015610305573d6000803e3d6000fd5b505050506040513d601f19601f82011682018060405250810190610329919061064b565b50505050505050565b6040805160608101825260008082526020820181905291810191909152826001600160a01b0316846001600160a01b0316111561036d579192915b50604080516060810182526001600160a01b03948516815292909316602083015262ffffff169181019190915290565b600081602001516001600160a01b031682600001516001600160a01b0316106103c557600080fd5b815160208084015160408086015181516001600160a01b0395861681860152949092168482015262ffffff90911660608085019190915281518085038201815260808501909252815191909201206001600160f81b031960a08401529085901b6bffffffffffffffffffffffff191660a183015260b58201527fe34f199b19b2b4f47f68442619d555527d244f78a3297ea89325f843f87b8b5460d582015260f50160408051601f1981840301815291905280516020909101209392505050565b6001600160a01b038116811461049b57600080fd5b50565b6000806000606084860312156104b357600080fd5b83356104be81610486565b925060208401356104ce81610486565b9150604084013562ffffff811681146104e657600080fd5b809150509250925092565b60006020828403121561050357600080fd5b5035919050565b6000806000806060858703121561052057600080fd5b8435935060208501359250604085013567ffffffffffffffff81111561054557600080fd5b8501601f8101871361055657600080fd5b803567ffffffffffffffff81111561056d57600080fd5b87602082840101111561057f57600080fd5b949793965060200194505050565b60018060a01b0385168152836020820152826040820152608060608201526000825180608084015260005b818110156105d557602081860181015160a08684010152016105b8565b50600060a0828501015260a0601f19601f83011684010191505095945050505050565b6000806040838503121561060b57600080fd5b823561061681610486565b946020939093013593505050565b8082018082111561064557634e487b7160e01b600052601160045260246000fd5b92915050565b60006020828403121561065d57600080fd5b8151801515811461066d57600080fd5b939250505056fea2646970667358221220953eb587366e2ed864bd391a6935c42c5a0ddb9d74b48ca127a905974f34274764736f6c634300081c0033","linkReferences":{}},"methodIdentifiers":{"flashloan(uint256)":"65b6c4f0","getPool(address,address,uint24)":"1698ee82","uniswapV3FlashCallback(uint256,uint256,bytes)":"e9cbafb0"},"id":25}