{
    "abi": [
        {
            "type": "constructor",
            "inputs": [],
            "stateMutability": "nonpayable"
        },
        {
            "type": "function",
            "name": "auth_detect",
            "inputs": [],
            "outputs": [
                {
                    "name": "",
                    "type": "address",
                    "internalType": "contract AuthModule"
                }
            ],
            "stateMutability": "view"
        },
        {
            "type": "function",
            "name": "batch_setblack",
            "inputs": [
                {
                    "name": "project",
                    "type": "address",
                    "internalType": "address"
                },
                {
                    "name": "blacklist",
                    "type": "address[]",
                    "internalType": "address[]"
                }
            ],
            "outputs": [],
            "stateMutability": "nonpayable"
        },
        {
            "type": "function",
            "name": "param_detect",
            "inputs": [],
            "outputs": [
                {
                    "name": "",
                    "type": "address",
                    "internalType": "contract ParamCheckModule"
                }
            ],
            "stateMutability": "view"
        },
        {
            "type": "function",
            "name": "proxy_registry",
            "inputs": [],
            "outputs": [
                {
                    "name": "",
                    "type": "address",
                    "internalType": "contract ProxyForRegistry"
                }
            ],
            "stateMutability": "view"
        },
        {
            "type": "function",
            "name": "proxy_router",
            "inputs": [],
            "outputs": [
                {
                    "name": "",
                    "type": "address",
                    "internalType": "contract ProxyForRouter"
                }
            ],
            "stateMutability": "view"
        },
        {
            "type": "function",
            "name": "reen_detect",
            "inputs": [],
            "outputs": [
                {
                    "name": "",
                    "type": "address",
                    "internalType": "contract ReentrancyDetectModule"
                }
            ],
            "stateMutability": "view"
        },
        {
            "type": "function",
            "name": "registry",
            "inputs": [],
            "outputs": [
                {
                    "name": "",
                    "type": "address",
                    "internalType": "contract FireWallRegistryV2"
                }
            ],
            "stateMutability": "view"
        },
        {
            "type": "function",
            "name": "router",
            "inputs": [],
            "outputs": [
                {
                    "name": "",
                    "type": "address",
                    "internalType": "contract FireWallRouterV2"
                }
            ],
            "stateMutability": "view"
        },
        {
            "type": "function",
            "name": "setProject",
            "inputs": [
                {
                    "name": "project_addr",
                    "type": "address",
                    "internalType": "address"
                },
                {
                    "name": "sig",
                    "type": "bytes4",
                    "internalType": "bytes4"
                },
                {
                    "name": "params",
                    "type": "string[]",
                    "internalType": "string[]"
                },
                {
                    "name": "modules",
                    "type": "address[]",
                    "internalType": "address[]"
                }
            ],
            "outputs": [],
            "stateMutability": "nonpayable"
        }
    ],
    "bytecode": {
        "object": "0x608060405234801561001057600080fd5b5060405161001d90610592565b604051809103906000f080158015610039573d6000803e3d6000fd5b50600080546001600160a01b0319166001600160a01b039290921691909117815560405133602482015260440160408051601f198184030181529181526020820180516001600160e01b031663189acdbd60e31b17905260005490519192506001600160a01b031690339083906100af9061059f565b6100bb93929190610633565b604051809103906000f0801580156100d7573d6000803e3d6000fd5b50600180546001600160a01b0319166001600160a01b0392909216919091179055604051610104906105ac565b604051809103906000f080158015610120573d6000803e3d6000fd5b50600280546001600160a01b0319166001600160a01b039283161790556001546040519116602482015233604482015260009060640160408051601f198184030181529181526020820180516001600160e01b031663485cc95560e01b17905260025490519192506001600160a01b0316903390839061019f906105b9565b6101ab93929190610633565b604051809103906000f0801580156101c7573d6000803e3d6000fd5b50600380546001600160a01b0319166001600160a01b03928316908117909155600154604051919216906101fa906105c6565b6001600160a01b03928316815291166020820152604001604051809103906000f08015801561022d573d6000803e3d6000fd5b50600480546001600160a01b0319166001600160a01b0392831690811790915560018054604051602481019390935233604484015260806064840152600c60a48401526b1c185c985b4819195d1958dd60a21b60c484015260848301919091529091169063d133576a9060e40160408051601f198184030181529181526020820180516001600160e01b031663cc863b7d60e01b1790525160e083901b6001600160e01b03191681526102e39190600401610668565b600060405180830381600087803b1580156102fd57600080fd5b505af1158015610311573d6000803e3d6000fd5b50506003546001546040516001600160a01b03928316945091169150610336906105d3565b6001600160a01b03928316815291166020820152604001604051809103906000f080158015610369573d6000803e3d6000fd5b50600580546001600160a01b0319166001600160a01b0392831690811790915560018054604051602481019390935233604484015260806064840152600b60a48401526a185d5d1a0819195d1958dd60aa1b60c484015260848301919091529091169063d133576a9060e40160408051601f198184030181529181526020820180516001600160e01b031663cc863b7d60e01b1790525160e083901b6001600160e01b031916815261041e9190600401610668565b600060405180830381600087803b15801561043857600080fd5b505af115801561044c573d6000803e3d6000fd5b50506003546001546040516001600160a01b03928316945091169150610471906105e0565b6001600160a01b03928316815291166020820152604001604051809103906000f0801580156104a4573d6000803e3d6000fd5b50600680546001600160a01b0319166001600160a01b0392831690811790915560018054604051602481019390935233604484015260806064840152600b60a48401526a1c99595b8819195d1958dd60aa1b60c484015260848301919091529091169063d133576a9060e40160408051601f198184030181529181526020820180516001600160e01b031663cc863b7d60e01b1790525160e083901b6001600160e01b03191681526105599190600401610668565b600060405180830381600087803b15801561057357600080fd5b505af1158015610587573d6000803e3d6000fd5b505050505050610682565b6126c280610fa783390190565b610c3c8061366983390190565b610940806142a583390190565b610c4980614be583390190565b61129f8061582e83390190565b610ebe80616acd83390190565b6108ca8061798b83390190565b6000815180845260005b81811015610613576020818501810151868301820152016105f7565b506000602082860101526020601f19601f83011685010191505092915050565b6001600160a01b0384811682528316602082015260606040820181905260009061065f908301846105ed565b95945050505050565b60208152600061067b60208301846105ed565b9392505050565b610916806106916000396000f3fe608060405234801561001057600080fd5b50600436106100935760003560e01c8063b7fd29ec11610066578063b7fd29ec14610102578063b804e66314610115578063c20b43af14610128578063d70695681461013b578063f887ea401461014e57600080fd5b806313830a2c1461009857806370588565146100c757806378db3714146100dc5780637b103999146100ef575b600080fd5b6005546100ab906001600160a01b031681565b6040516001600160a01b03909116815260200160405180910390f35b6100da6100d536600461055f565b610161565b005b6001546100ab906001600160a01b031681565b6000546100ab906001600160a01b031681565b6004546100ab906001600160a01b031681565b6003546100ab906001600160a01b031681565b6100da6101363660046106d4565b6102af565b6006546100ab906001600160a01b031681565b6002546100ab906001600160a01b031681565b600354604051636d88c28f60e11b81526001600160a01b0391821660048201529085169063db11851e90602401600060405180830381600087803b1580156101a857600080fd5b505af11580156101bc573d6000803e3d6000fd5b5050600154604051600093506001600160a01b0390911691506101eb90879033908890889088906024016107b7565b60408051601f198184030181529181526020820180516001600160e01b0316635be60d9160e11b17905251610220919061085a565b6000604051808303816000865af19150503d806000811461025d576040519150601f19603f3d011682016040523d82523d6000602084013e610262565b606091505b50509050806102a85760405162461bcd60e51b815260206004820152600e60248201526d3932b3b4b9ba32b91032b93937b960911b604482015260640160405180910390fd5b5050505050565b6005546040516001600160a01b03909116906000906102d49085908590602001610876565b60408051601f198184030181528282526001600160a01b038716602084015260009183018290526001606084015292509060800160405160208183030381529060405290506000838260405160240161032e9291906108a2565b60408051601f198184030181529181526020820180516001600160e01b031663a543048d60e01b1790526001549051636899abb560e11b81529192506001600160a01b03169063d133576a906103889084906004016108c6565b600060405180830381600087803b1580156103a257600080fd5b505af11580156103b6573d6000803e3d6000fd5b50505050600084846040516024016103cf9291906108a2565b60408051601f198184030181529181526020820180516001600160e01b0316635e7d86d360e01b1790526001549051636899abb560e11b81529192506001600160a01b03169063d133576a906104299084906004016108c6565b600060405180830381600087803b15801561044357600080fd5b505af1158015610457573d6000803e3d6000fd5b5050505050505050505050565b80356001600160a01b038116811461047b57600080fd5b919050565b634e487b7160e01b600052604160045260246000fd5b604051601f8201601f1916810167ffffffffffffffff811182821017156104bf576104bf610480565b604052919050565b600067ffffffffffffffff8211156104e1576104e1610480565b5060051b60200190565b600082601f8301126104fc57600080fd5b813561050f61050a826104c7565b610496565b8082825260208201915060208360051b86010192508583111561053157600080fd5b602085015b838110156105555761054781610464565b835260209283019201610536565b5095945050505050565b6000806000806080858703121561057557600080fd5b61057e85610464565b935060208501356001600160e01b03198116811461059b57600080fd5b9250604085013567ffffffffffffffff8111156105b757600080fd5b8501601f810187136105c857600080fd5b80356105d661050a826104c7565b8082825260208201915060208360051b8501019250898311156105f857600080fd5b602084015b8381101561069c57803567ffffffffffffffff81111561061c57600080fd5b8501603f81018c1361062d57600080fd5b602081013567ffffffffffffffff81111561064a5761064a610480565b61065d601f8201601f1916602001610496565b8181526040838301018e101561067257600080fd5b816040840160208301376000602083830101528086525050506020830192506020810190506105fd565b509450505050606085013567ffffffffffffffff8111156106bc57600080fd5b6106c8878288016104eb565b91505092959194509250565b600080604083850312156106e757600080fd5b6106f083610464565b9150602083013567ffffffffffffffff81111561070c57600080fd5b610718858286016104eb565b9150509250929050565b60005b8381101561073d578181015183820152602001610725565b50506000910152565b6000815180845261075e816020860160208601610722565b601f01601f19169290920160200192915050565b600081518084526020840193506020830160005b828110156107ad5781516001600160a01b0316865260209586019590910190600101610786565b5093949350505050565b6001600160a01b03868116825285166020808301919091526001600160e01b03198516604083015260a060608301819052845190830181905260009160c0600583901b8501810192908501918701845b828110156108385760bf19878603018452610823858351610746565b94506020938401939190910190600101610807565b50505050828103608084015261084e8185610772565b98975050505050505050565b6000825161086c818460208701610722565b9190910192915050565b6001600160a01b038316815260406020820181905260009061089a90830184610772565b949350505050565b6001600160a01b038316815260406020820181905260009061089a90830184610746565b6020815260006108d96020830184610746565b939250505056fea26469706673582212209198e43ac4083c8bb54df2086034051ca257a172ff5c3e75d8084a367280aff664736f6c634300081a00336080604052348015600f57600080fd5b506126a38061001f6000396000f3fe608060405234801561001057600080fd5b506004361061018e5760003560e01c806388db1a33116100de578063a543048d11610097578063c4d66de811610071578063c4d66de814610373578063cc863b7d14610386578063d012b85b14610399578063e6c2fa88146103ac57600080fd5b8063a543048d14610345578063ae289d6f14610358578063b7cc1b221461036057600080fd5b806388db1a33146102d15780638c50221e146102e457806393232a6d14610304578063985107cf14610317578063a06324611461032a578063a07ce13b1461033d57600080fd5b8063501e473f1161014b57806367d165071161012557806367d16507146102855780636be12c00146102985780637b461f9d146102ab5780637e429e6e146102be57600080fd5b8063501e473f1461022a5780635523c1ad1461023f5780635e7d86d31461027257600080fd5b8063076cea121461019357806313af4035146101bc57806334f6eccb146101d1578063350da345146101e457806336b1ae16146102045780633c9f09b514610217575b600080fd5b6101a66101a1366004611b81565b6103ed565b6040516101b39190611be9565b60405180910390f35b6101cf6101ca366004611b81565b610487565b005b6101cf6101df366004611c14565b6104dc565b6101f76101f2366004611c57565b61075a565b6040516101b39190611ccf565b6101cf610212366004611d70565b6108f8565b6101cf610225366004611e3b565b610950565b610232610a2b565b6040516101b39190611e9c565b61026261024d366004611b81565b60076020526000908152604090205460ff1681565b60405190151581526020016101b3565b6101cf610280366004611e3b565b610b51565b6101cf610293366004611b81565b610bb3565b6101cf6102a6366004611e3b565b610c73565b6101cf6102b9366004611e3b565b610d18565b6101cf6102cc366004611c57565b610de7565b6101cf6102df366004611b81565b610ee1565b6102f76102f2366004611c57565b610ff5565b6040516101b39190611f3f565b6101cf610312366004611b81565b611081565b6101cf610325366004611b81565b61118d565b6101cf610338366004611b81565b611250565b6101cf6114e1565b6101cf610353366004611e3b565b61159f565b6101cf6115cb565b6101cf61036e366004612009565b61165d565b6101cf610381366004611b81565b6104ba565b6101cf61039436600461211b565b6117ab565b6101cf6103a7366004611c57565b611948565b6103d56103ba366004611b81565b6006602052600090815260409020546001600160401b031681565b6040516001600160401b0390911681526020016101b3565b6005602052600090815260409020805461040690612190565b80601f016020809104026020016040519081016040528092919081815260200182805461043290612190565b801561047f5780601f106104545761010080835404028352916020019161047f565b820191906000526020600020905b81548152906001019060200180831161046257829003601f168201915b505050505081565b6000546001600160a01b031633146104ba5760405162461bcd60e51b81526004016104b1906121ca565b60405180910390fd5b600080546001600160a01b0319166001600160a01b0392909216919091179055565b6001600160a01b03831660009081526002602090815260408083206001600160e01b03198616845282528083206001018054825181850281018501909352808352919290919083018282801561055b57602002820191906000526020600020905b81546001600160a01b0316815260019091019060200180831161053d575b5050505050905060005b81518110156106f2576000828281518110610582576105826121f7565b60200260200101519050836001600160a01b0316816001600160a01b0316036106e95782600184516105b49190612223565b815181106105c4576105c46121f7565b6020908102919091018101516001600160a01b03881660009081526002835260408082206001600160e01b03198a16835290935291909120600101805484908110610611576106116121f7565b600091825260208083209190910180546001600160a01b0319166001600160a01b0394851617905591881681526002825260408082206001600160e01b0319891683529092522060010180548061066a5761066a612236565b60008281526020808220830160001990810180546001600160a01b03191690559092019092556001600160a01b03831682526005905260409081902090517f9f096b91955ec5d2ebca3fb74e03b849529129c42c11b5372f0151a876522b24916106d9918991899186906122cf565b60405180910390a1505050505050565b50600101610565565b5060405162461bcd60e51b815260206004820152603660248201527f556e61626c6520746f2064656c657465206d6f64756c65206261736564206f6e6044820152751034b731b7b93932b1ba1034b73337b936b0ba34b7b760511b60648201526084016104b1565b604080516060808201835280825260208201526000918101919091526001600160a01b03831660009081526002602090815260408083206001600160e01b03198616845282528083208151815460809481028201850190935260608101838152909491938593919285929185015b828210156108745783829060005260206000200180546107e790612190565b80601f016020809104026020016040519081016040528092919081815260200182805461081390612190565b80156108605780601f1061083557610100808354040283529160200191610860565b820191906000526020600020905b81548152906001019060200180831161084357829003601f168201915b5050505050815260200190600101906107c8565b505050508152602001600182018054806020026020016040519081016040528092919081815260200182805480156108d557602002820191906000526020600020905b81546001600160a01b031681526001909101906020018083116108b7575b50505091835250506002919091015460ff16151560209091015290505b92915050565b6000546001600160a01b031633146109225760405162461bcd60e51b81526004016104b1906121ca565b6001600160a01b03918216600090815260016020526040902080546001600160a01b03191691909216179055565b6000546001600160a01b0316331461097a5760405162461bcd60e51b81526004016104b1906121ca565b60405163e56ac77560e01b81526001600160a01b0383169063e56ac775906109a6908490600401611be9565b600060405180830381600087803b1580156109c057600080fd5b505af11580156109d4573d6000803e3d6000fd5b505050506001600160a01b0382166000908152600560205260409081902090517fe132b06589a2e3f79d9df69a863e3c576972c8222db8d5d5961a28739cf47b7b91610a1f9161231c565b60405180910390a15050565b60606004805480602002602001604051908101604052809291908181526020016000905b82821015610b48576000848152602090819020604080516080810182526004860290920180546001600160a01b0390811684526001820154169383019390935260028301805492939291840191610aa590612190565b80601f0160208091040260200160405190810160405280929190818152602001828054610ad190612190565b8015610b1e5780601f10610af357610100808354040283529160200191610b1e565b820191906000526020600020905b815481529060010190602001808311610b0157829003601f168201915b50505091835250506003919091015460ff1615156020918201529082526001929092019101610a4f565b50505050905090565b6040516307fe0baf60e01b81526001600160a01b038316906307fe0baf90610b7d908490600401611be9565b600060405180830381600087803b158015610b9757600080fd5b505af1158015610bab573d6000803e3d6000fd5b505050505050565b6000546001600160a01b03163314610bdd5760405162461bcd60e51b81526004016104b1906121ca565b6001600160a01b038116600090815260066020526040812054600480546001600160401b03909216929183908110610c1757610c176121f7565b600091825260209182902060049190910201600301805460ff1916921515929092179091556040516001600160a01b03841681527f81f938aa5d8608f72b4bffc2765f635985759730b9ce3639f3de7c85a6770d7d9101610a1f565b60405163316ec61160e21b81526001600160a01b0383169063c5bb184490610c9f908490600401611be9565b600060405180830381600087803b158015610cb957600080fd5b505af1158015610ccd573d6000803e3d6000fd5b505050506001600160a01b0382166000908152600560205260409081902090517f8d8a71c274459a3a61ad0a3c5b7123abc78a18bbc705c76574080240f00eb43391610a1f9161231c565b6000546001600160a01b03163314610d425760405162461bcd60e51b81526004016104b1906121ca565b60405163169688dd60e21b81526001600160a01b03831690635a5a237490610d6e908490600401611be9565b600060405180830381600087803b158015610d8857600080fd5b505af1158015610d9c573d6000803e3d6000fd5b505050506001600160a01b0382166000908152600560205260409081902090517f3d6bcb3ba6563b92b6d7f33cf9c29f0488ed61a3824895f04fb56751de2dd38b91610a1f9161231c565b6001600160a01b0382811660009081526001602052604090205416331480610e1957506000546001600160a01b031633145b610e795760405162461bcd60e51b815260206004820152602b60248201527f52656769737472792d2d756e706175736546756e6374696f6e3a7065726d697360448201526a1cda5bdb8819195b9a595960aa1b60648201526084016104b1565b6001600160a01b03821660009081526002602081815260408084206001600160e01b0319861685529091529182902001805460ff19169055517f3ec789ca270a19a21d684eafd603cc49dc39ac2e6f53196969d3eac6a338de2d90610a1f908490849061232f565b6000546001600160a01b03163314610f0b5760405162461bcd60e51b81526004016104b1906121ca565b6001600160a01b0381811660009081526001602052604090205416331480610f3d57506000546001600160a01b031633145b610f9a5760405162461bcd60e51b815260206004820152602860248201527f52656769737472792d2d706175736550726f6a6563743a7065726d697373696f6044820152671b8819195b9a595960c21b60648201526084016104b1565b6001600160a01b038116600081815260076020908152604091829020805460ff1916600117905590519182527fd1e69e6dd07d34dc583c702b8750e91ff8acb71644cee730f4468341c9d416ad91015b60405180910390a150565b6001600160a01b03821660009081526002602090815260408083206001600160e01b03198516845282529182902060010180548351818402810184019094528084526060939283018282801561107457602002820191906000526020600020905b81546001600160a01b03168152600190910190602001808311611056575b5050505050905092915050565b6000546001600160a01b031633146110ab5760405162461bcd60e51b81526004016104b1906121ca565b6001600160a01b03818116600090815260016020526040902054163314806110dd57506000546001600160a01b031633145b61113c5760405162461bcd60e51b815260206004820152602a60248201527f52656769737472792d2d756e706175736550726f6a6563743a7065726d6973736044820152691a5bdb8819195b9a595960b21b60648201526084016104b1565b6001600160a01b038116600081815260076020908152604091829020805460ff1916905590519182527fd1e69e6dd07d34dc583c702b8750e91ff8acb71644cee730f4468341c9d416ad9101610fea565b6000546001600160a01b031633146111b75760405162461bcd60e51b81526004016104b1906121ca565b6001600160a01b038116600090815260066020526040902054600480546001600160401b039092169160019190839081106111f4576111f46121f7565b600091825260209182902060049190910201600301805460ff1916921515929092179091556040516001600160a01b03841681527f4a6b0717291c3a09d614a414cdaa8fa752377d86632eb4034c94d8c7f52b5c259101610a1f565b6000546001600160a01b0316331461127a5760405162461bcd60e51b81526004016104b1906121ca565b6001600160a01b0381166000908152600660205260409020546004546001600160401b03909116906112ae90600190612223565b816001600160401b031610156113fe578060066000600460016004805490506112d79190612223565b815481106112e7576112e76121f7565b60009182526020808320600492830201546001600160a01b039081168552848201959095526040938401832080546001600160401b039790971667ffffffffffffffff1997881617905593871682526006909352208054909216909155805461135290600190612223565b81548110611362576113626121f7565b90600052602060002090600402016004826001600160401b03168154811061138c5761138c6121f7565b60009182526020909120825460049092020180546001600160a01b039283166001600160a01b03199182161782556001808501549083018054919094169116179091556002808201906113e1908401826123a0565b506003918201549101805460ff191660ff90921615159190911790555b600480548061140f5761140f612236565b60008281526020812060046000199093019283020180546001600160a01b0319908116825560018201805490911690559061144d6002830182611a43565b50600301805460ff1916905590556001600160a01b0382166000908152600560205260409081902090517fab73bba3d2886ca06868cd4aa789cc002ce431ee652c870764ec85b6cabb658f916114a491859061247f565b60405180910390a1604080516020808201835260008083526001600160a01b0386168152600590915291909120906114dc90826124a9565b505050565b6000546001600160a01b0316331461150b5760405162461bcd60e51b81526004016104b1906121ca565b60005b6004546001600160401b03821610156115735760016004826001600160401b03168154811061153f5761153f6121f7565b60009182526020909120600490910201600301805460ff19169115159190911790558061156b8161255f565b91505061150e565b506040517f531f585f258599451bd136c99938c9b085270bdbaec44cdfe2486e104b6ae50590600090a1565b604051634fa5837960e11b81526001600160a01b03831690639f4b06f290610b7d908490600401611be9565b6000546001600160a01b031633146115f55760405162461bcd60e51b81526004016104b1906121ca565b60005b6004546001600160401b03821610156115735760006004826001600160401b031681548110611629576116296121f7565b60009182526020909120600490910201600301805460ff1916911515919091179055806116558161255f565b9150506115f8565b60408051606081018252838152602080820184905260008284018190526001600160a01b0389168152600282528381206001600160e01b03198816825282529290922081518051929391926116b59284920190611a80565b5060208281015180516116ce9260018501920190611ad6565b506040918201516002909101805491151560ff199283161790556001600160a01b038088166000818152600160208181528683208054958c166001600160a01b031990961695909517909455600384528582208054918201815582528382206008820401805460e08b901c60046007948516026101000a90810263ffffffff90910219909116179055918152915282902080549091169055517f87babd5627be9ce0cde8e797ddace144e324ba85e58b63b7a3e98aee1a0673559061179c908790869088908790879061258a565b60405180910390a15050505050565b604080516080810182526001600160a01b038087168252858116602083019081529282018581528415156060840152600480546001810182556000829052845191027f8a35acfbc15ff81a39ae7d344fd709f28e8600b4aa8c65c6b64bfe7fe36bd19b810180549285166001600160a01b031993841617815595517f8a35acfbc15ff81a39ae7d344fd709f28e8600b4aa8c65c6b64bfe7fe36bd19c8201805491909516921691909117909255519192917f8a35acfbc15ff81a39ae7d344fd709f28e8600b4aa8c65c6b64bfe7fe36bd19d9091019061188b90826124a9565b50606091909101516003909101805460ff19169115159190911790556001600160a01b03841660009081526005602052604090206118c983826124a9565b506004546001600160a01b03851660009081526006602052604090819020805467ffffffffffffffff19166001600160401b0390931692909217909155517f7e9bae6821674aa2d9b92f2e98eabd4410524f6a1eb088551d0e727f78df52419061193a90869086908690869061262e565b60405180910390a150505050565b6001600160a01b038281166000908152600160205260409020541633148061197a57506000546001600160a01b031633145b6119d85760405162461bcd60e51b815260206004820152602960248201527f52656769737472792d2d706175736546756e6374696f6e3a7065726d697373696044820152681bdb8819195b9a595960ba1b60648201526084016104b1565b6001600160a01b03821660009081526002602081815260408084206001600160e01b0319861685529091529182902001805460ff19166001179055517f3ec789ca270a19a21d684eafd603cc49dc39ac2e6f53196969d3eac6a338de2d90610a1f908490849061232f565b508054611a4f90612190565b6000825580601f10611a5f575050565b601f016020900490600052602060002090810190611a7d9190611b33565b50565b828054828255906000526020600020908101928215611ac6579160200282015b82811115611ac65782518290611ab690826124a9565b5091602001919060010190611aa0565b50611ad2929150611b48565b5090565b828054828255906000526020600020908101928215611b2b579160200282015b82811115611b2b57825182546001600160a01b0319166001600160a01b03909116178255602090920191600190910190611af6565b50611ad29291505b5b80821115611ad25760008155600101611b34565b80821115611ad2576000611b5c8282611a43565b50600101611b48565b80356001600160a01b0381168114611b7c57600080fd5b919050565b600060208284031215611b9357600080fd5b611b9c82611b65565b9392505050565b6000815180845260005b81811015611bc957602081850181015186830182015201611bad565b506000602082860101526020601f19601f83011685010191505092915050565b602081526000611b9c6020830184611ba3565b80356001600160e01b031981168114611b7c57600080fd5b600080600060608486031215611c2957600080fd5b611c3284611b65565b9250611c4060208501611bfc565b9150611c4e60408501611b65565b90509250925092565b60008060408385031215611c6a57600080fd5b611c7383611b65565b9150611c8160208401611bfc565b90509250929050565b600081518084526020840193506020830160005b82811015611cc55781516001600160a01b0316865260209586019590910190600101611c9e565b5093949350505050565b6020815260006080820183516060602085015281815180845260a08601915060a08160051b870101935060208301925060005b81811015611d3357609f19878603018352611d1e858551611ba3565b94506020938401939290920191600101611d02565b505050506020840151838203601f19016040850152611d528282611c8a565b9150506040840151611d68606085018215159052565b509392505050565b60008060408385031215611d8357600080fd5b611d8c83611b65565b9150611c8160208401611b65565b634e487b7160e01b600052604160045260246000fd5b604051601f8201601f191681016001600160401b0381118282101715611dd857611dd8611d9a565b604052919050565b6000806001600160401b03841115611dfa57611dfa611d9a565b50601f8301601f1916602001611e0f81611db0565b915050828152838383011115611e2457600080fd5b828260208301376000602084830101529392505050565b60008060408385031215611e4e57600080fd5b611e5783611b65565b915060208301356001600160401b03811115611e7257600080fd5b8301601f81018513611e8357600080fd5b611e9285823560208401611de0565b9150509250929050565b6000602082016020835280845180835260408501915060408160051b86010192506020860160005b82811015611f3357868503603f19018452815180516001600160a01b03908116875260208083015190911690870152604080820151608091880182905290611f0e90880182611ba3565b6060928301511515979092019690965294506020938401939190910190600101611ec4565b50929695505050505050565b602081526000611b9c6020830184611c8a565b60006001600160401b03821115611f6b57611f6b611d9a565b5060051b60200190565b600082601f830112611f8657600080fd5b611b9c83833560208501611de0565b600082601f830112611fa657600080fd5b8135611fb9611fb482611f52565b611db0565b8082825260208201915060208360051b860101925085831115611fdb57600080fd5b602085015b83811015611fff57611ff181611b65565b835260209283019201611fe0565b5095945050505050565b600080600080600060a0868803121561202157600080fd5b61202a86611b65565b945061203860208701611b65565b935061204660408701611bfc565b925060608601356001600160401b0381111561206157600080fd5b8601601f8101881361207257600080fd5b8035612080611fb482611f52565b8082825260208201915060208360051b85010192508a8311156120a257600080fd5b602084015b838110156120e35780356001600160401b038111156120c557600080fd5b6120d48d602083890101611f75565b845250602092830192016120a7565b50945050505060808601356001600160401b0381111561210257600080fd5b61210e88828901611f95565b9150509295509295909350565b6000806000806080858703121561213157600080fd5b61213a85611b65565b935061214860208601611b65565b925060408501356001600160401b0381111561216357600080fd5b61216f87828801611f75565b9250506060850135801515811461218557600080fd5b939692955090935050565b600181811c908216806121a457607f821691505b6020821081036121c457634e487b7160e01b600052602260045260246000fd5b50919050565b6020808252601390820152721bdb9b1e481bdddb995c8818d85b8818d85b1b606a1b604082015260600190565b634e487b7160e01b600052603260045260246000fd5b634e487b7160e01b600052601160045260246000fd5b818103818111156108f2576108f261220d565b634e487b7160e01b600052603160045260246000fd5b6000815461225981612190565b808552600182168015612273576001811461228f576122c6565b60ff1983166020870152602082151560051b87010193506122c6565b84600052602060002060005b838110156122bd5781546020828a01015260018201915060208101905061229b565b87016020019450505b50505092915050565b6001600160a01b03851681526001600160e01b0319841660208201526080604082018190526000906123039083018561224c565b905060018060a01b038316606083015295945050505050565b602081526000611b9c602083018461224c565b6001600160a01b039290921682526001600160e01b031916602082015260400190565b601f8211156114dc57806000526020600020601f840160051c810160208510156123795750805b601f840160051c820191505b818110156123995760008155600101612385565b5050505050565b8181036123ab575050565b6123b58254612190565b6001600160401b038111156123cc576123cc611d9a565b6123e0816123da8454612190565b84612352565b6000601f82116001811461241757600083156123fc5750848201545b600184901b600019600386901b1c198216175b855550612399565b600085815260209020601f19841690600086815260209020845b838110156124515782860154825560019586019590910190602001612431565b508583101561246f5781850154600019600388901b60f8161c191681555b5050505050600190811b01905550565b604081526000612492604083018561224c565b905060018060a01b03831660208301529392505050565b81516001600160401b038111156124c2576124c2611d9a565b6124d0816123da8454612190565b6020601f82116001811461250257600083156123fc575081850151600184901b600019600386901b1c1982161761240f565b600084815260208120601f198516915b828110156125325787850151825560209485019460019092019101612512565b50848210156125505786840151600019600387901b60f8161c191681555b50505050600190811b01905550565b60006001600160401b0382166001600160401b0381036125815761258161220d565b60010192915050565b6001600160a01b0386811682526001600160e01b03198616602080840191909152908516604083015260a060608301819052845190830181905260009160c0600583901b8501810192908501918701845b8281101561260c5760bf198786030184526125f7858351611ba3565b945060209384019391909101906001016125db565b5050505082810360808401526126228185611c8a565b98975050505050505050565b6001600160a01b0385811682528416602082015260806040820181905260009061265a90830185611ba3565b905082151560608301529594505050505056fea2646970667358221220359a7efad854f4c46de936c1809216d8fbf9345f788cc0b99491d8214c2b088364736f6c634300081a00336080604052604051610c3c380380610c3c833981016040819052610022916103e7565b828161003082826000610044565b5061003c905082610070565b50505061050c565b61004d836100de565b60008251118061005a5750805b1561006b57610069838361011e565b505b505050565b7f7e644d79422f17c01e4894b5f4f588d331ebfa28653d42ae832dc59e38c9798f6100b0600080516020610bf5833981519152546001600160a01b031690565b604080516001600160a01b03928316815291841660208301520160405180910390a16100db8161014a565b50565b6100e7816101e6565b6040516001600160a01b038216907fbc7cd75a20ee27fd9adebab32041f755214dbc6bffa90cc0225b39da2e5c2d3b90600090a250565b60606101438383604051806060016040528060278152602001610c156027913961027a565b9392505050565b6001600160a01b0381166101b45760405162461bcd60e51b815260206004820152602660248201527f455243313936373a206e65772061646d696e20697320746865207a65726f206160448201526564647265737360d01b60648201526084015b60405180910390fd5b80600080516020610bf58339815191525b80546001600160a01b0319166001600160a01b039290921691909117905550565b6001600160a01b0381163b6102535760405162461bcd60e51b815260206004820152602d60248201527f455243313936373a206e657720696d706c656d656e746174696f6e206973206e60448201526c1bdd08184818dbdb9d1c9858dd609a1b60648201526084016101ab565b807f360894a13ba1a3210667c828492db98dca3e2076cc3735a920a3ca505d382bbc6101c5565b60606001600160a01b0384163b6102e25760405162461bcd60e51b815260206004820152602660248201527f416464726573733a2064656c65676174652063616c6c20746f206e6f6e2d636f6044820152651b9d1c9858dd60d21b60648201526084016101ab565b600080856001600160a01b0316856040516102fd91906104bd565b600060405180830381855af49150503d8060008114610338576040519150601f19603f3d011682016040523d82523d6000602084013e61033d565b606091505b50909250905061034e828286610358565b9695505050505050565b60608315610367575081610143565b8251156103775782518084602001fd5b8160405162461bcd60e51b81526004016101ab91906104d9565b80516001600160a01b03811681146103a857600080fd5b919050565b634e487b7160e01b600052604160045260246000fd5b60005b838110156103de5781810151838201526020016103c6565b50506000910152565b6000806000606084860312156103fc57600080fd5b61040584610391565b925061041360208501610391565b60408501519092506001600160401b0381111561042f57600080fd5b8401601f8101861361044057600080fd5b80516001600160401b03811115610459576104596103ad565b604051601f8201601f19908116603f011681016001600160401b0381118282101715610487576104876103ad565b60405281815282820160200188101561049f57600080fd5b6104b08260208301602086016103c3565b8093505050509250925092565b600082516104cf8184602087016103c3565b9190910192915050565b60208152600082518060208401526104f88160408501602087016103c3565b601f01601f19169190910160400192915050565b6106da8061051b6000396000f3fe6080604052600436106100385760003560e01c80633659cfe61461004f5780634f1ef2861461006f578063d133576a1461008257610047565b36610047576100456100a2565b005b6100456100a2565b34801561005b57600080fd5b5061004561006a36600461049b565b6100b4565b61004561007d3660046104b6565b6100f1565b34801561008e57600080fd5b5061004561009d366004610551565b610158565b6100b26100ad610160565b61016f565b565b6100bc61019a565b6001600160a01b031633036100e9576100e6816040518060200160405280600081525060006101cd565b50565b6100e66100a2565b6100f961019a565b6001600160a01b031633036101505761014b8383838080601f016020809104026020016040519081016040528093929190818152602001838380828437600092019190915250600192506101cd915050565b505050565b61014b6100a2565b6100e66101f2565b600061016a610202565b905090565b3660008037600080366000845af43d806000803e81801561018f57816000f35b816000fd5b50505050565b60007fb53127684a568b3173ae13b9f8a6016e243e63b6e8ee1178d6a717850b5d61035b546001600160a01b0316919050565b6101d68361022a565b6000825111806101e35750805b1561014b57610194838361026a565b6100b26101fd610160565b610296565b60007f360894a13ba1a3210667c828492db98dca3e2076cc3735a920a3ca505d382bbc6101be565b610233816102b6565b6040516001600160a01b038216907fbc7cd75a20ee27fd9adebab32041f755214dbc6bffa90cc0225b39da2e5c2d3b90600090a250565b606061028f838360405180606001604052806027815260200161067e60279139610369565b9392505050565b3660008037600080366044845af43d806000803e81801561018f57816000f35b6001600160a01b0381163b6103285760405162461bcd60e51b815260206004820152602d60248201527f455243313936373a206e657720696d706c656d656e746174696f6e206973206e60448201526c1bdd08184818dbdb9d1c9858dd609a1b60648201526084015b60405180910390fd5b7f360894a13ba1a3210667c828492db98dca3e2076cc3735a920a3ca505d382bbc80546001600160a01b0319166001600160a01b0392909216919091179055565b60606001600160a01b0384163b6103d15760405162461bcd60e51b815260206004820152602660248201527f416464726573733a2064656c65676174652063616c6c20746f206e6f6e2d636f6044820152651b9d1c9858dd60d21b606482015260840161031f565b600080856001600160a01b0316856040516103ec919061062e565b600060405180830381855af49150503d8060008114610427576040519150601f19603f3d011682016040523d82523d6000602084013e61042c565b606091505b509150915061043c828286610446565b9695505050505050565b6060831561045557508161028f565b8251156104655782518084602001fd5b8160405162461bcd60e51b815260040161031f919061064a565b80356001600160a01b038116811461049657600080fd5b919050565b6000602082840312156104ad57600080fd5b61028f8261047f565b6000806000604084860312156104cb57600080fd5b6104d48461047f565b9250602084013567ffffffffffffffff8111156104f057600080fd5b8401601f8101861361050157600080fd5b803567ffffffffffffffff81111561051857600080fd5b86602082840101111561052a57600080fd5b939660209190910195509293505050565b634e487b7160e01b600052604160045260246000fd5b60006020828403121561056357600080fd5b813567ffffffffffffffff81111561057a57600080fd5b8201601f8101841361058b57600080fd5b803567ffffffffffffffff8111156105a5576105a561053b565b604051601f8201601f19908116603f0116810167ffffffffffffffff811182821017156105d4576105d461053b565b6040528181528282016020018610156105ec57600080fd5b81602084016020830137600091810160200191909152949350505050565b60005b8381101561062557818101518382015260200161060d565b50506000910152565b6000825161064081846020870161060a565b9190910192915050565b602081526000825180602084015261066981604085016020870161060a565b601f01601f1916919091016040019291505056fe416464726573733a206c6f772d6c6576656c2064656c65676174652063616c6c206661696c6564a2646970667358221220e9d832c272f0e8ff633ea20af4cff97e836ce118420d57ad996a2b7486f727f764736f6c634300081a0033b53127684a568b3173ae13b9f8a6016e243e63b6e8ee1178d6a717850b5d6103416464726573733a206c6f772d6c6576656c2064656c65676174652063616c6c206661696c65646080604052348015600f57600080fd5b506109218061001f6000396000f3fe608060405234801561001057600080fd5b50600436106100415760003560e01c8063485cc955146100465780638da5cb5b146100845780638e756d44146100b4575b600080fd5b61008261005436600461042e565b600080546001600160a01b039384166001600160a01b03199182161790915560018054929093169116179055565b005b600154610097906001600160a01b031681565b6040516001600160a01b0390911681526020015b60405180910390f35b6100c76100c23660046104ff565b6100d7565b60405190151581526020016100ab565b600080336100e48461057f565b6040516001600160a01b0390921660248301526001600160e01b031916604482015260640160408051601f198184030181529181526020820180516001600160e01b031663350da34560e01b1790526000549051636899abb560e11b81529192506001600160a01b03169063d133576a9061016390849060040161060d565b600060405180830381600087803b15801561017d57600080fd5b505af1158015610191573d6000803e3d6000fd5b5050505060603d6040519150808252806000602084013e806020830101604052506000818060200190518101906101c891906106d1565b60405133602482015290915060009060440160408051601f198184030181529181526020820180516001600160e01b0316635523c1ad60e01b1790526000549051636899abb560e11b81529192506001600160a01b03169063d133576a9061023490849060040161060d565b600060405180830381600087803b15801561024e57600080fd5b505af1158015610262573d6000803e3d6000fd5b5050505060603d6040519150808252806000602084013e806020830101604052506000818060200190518101906102999190610833565b905080156102ee5760405162461bcd60e51b815260206004820152601c60248201527f70726f6a65637420697320706175736520696e746572616374696f6e0000000060448201526064015b60405180910390fd5b83604001511561034e5760405162461bcd60e51b815260206004820152602560248201527f70726f6a6563742066756e6374696f6e20697320706175736520696e7465726160448201526431ba34b7b760d91b60648201526084016102e5565b60005b846020015151811015610407576000856020015182815181106103765761037661084e565b60200260200101519050600086600001519050816001600160a01b03166312c3a2a533838e6040518463ffffffff1660e01b81526004016103b993929190610864565b6020604051808303816000875af11580156103d8573d6000803e3d6000fd5b505050506040513d601f19601f820116820180604052508101906103fc9190610833565b505050600101610351565b50600198975050505050505050565b6001600160a01b038116811461042b57600080fd5b50565b6000806040838503121561044157600080fd5b823561044c81610416565b9150602083013561045c81610416565b809150509250929050565b634e487b7160e01b600052604160045260246000fd5b6040516060810167ffffffffffffffff811182821017156104a0576104a0610467565b60405290565b604051601f8201601f1916810167ffffffffffffffff811182821017156104cf576104cf610467565b604052919050565b600067ffffffffffffffff8211156104f1576104f1610467565b50601f01601f191660200190565b60006020828403121561051157600080fd5b813567ffffffffffffffff81111561052857600080fd5b8201601f8101841361053957600080fd5b803561054c610547826104d7565b6104a6565b81815285602083850101111561056157600080fd5b81602084016020830137600091810160200191909152949350505050565b805160208201516001600160e01b03198116919060048210156105b6576001600160e01b0319600483900360031b81901b82161692505b5050919050565b60005b838110156105d85781810151838201526020016105c0565b50506000910152565b600081518084526105f98160208601602086016105bd565b601f01601f19169290920160200192915050565b60208152600061062060208301846105e1565b9392505050565b600067ffffffffffffffff82111561064157610641610467565b5060051b60200190565b600082601f83011261065c57600080fd5b815161066a61054782610627565b8082825260208201915060208360051b86010192508583111561068c57600080fd5b602085015b838110156106b25780516106a481610416565b835260209283019201610691565b5095945050505050565b805180151581146106cc57600080fd5b919050565b6000602082840312156106e357600080fd5b815167ffffffffffffffff8111156106fa57600080fd5b82016060818503121561070c57600080fd5b61071461047d565b815167ffffffffffffffff81111561072b57600080fd5b8201601f8101861361073c57600080fd5b805161074a61054782610627565b8082825260208201915060208360051b85010192508883111561076c57600080fd5b602084015b838110156107e857805167ffffffffffffffff81111561079057600080fd5b8501603f81018b136107a157600080fd5b60208101516107b2610547826104d7565b8181526040838301018d10156107c757600080fd5b6107d88260208301604086016105bd565b8552505060209283019201610771565b508452505050602082015167ffffffffffffffff81111561080857600080fd5b6108148682850161064b565b602083015250610826604083016106bc565b6040820152949350505050565b60006020828403121561084557600080fd5b610620826106bc565b634e487b7160e01b600052603260045260246000fd5b60006060820160018060a01b03861683526060602084015280855180835260808501915060808160051b86010192506020870160005b828110156108cb57607f198786030184526108b68583516105e1565b9450602093840193919091019060010161089a565b5050505082810360408401526108e181856105e1565b969550505050505056fea264697066735822122083c7df96c612cc141e423922b676384940f43a2bf2230cf345dd9baf654bad8b64736f6c634300081a0033608060405234801561001057600080fd5b50604051610c49380380610c4983398101604081905261002f916103f4565b828161003d82826000610051565b5061004990508261007d565b505050610519565b61005a836100eb565b6000825111806100675750805b1561007857610076838361012b565b505b505050565b7f7e644d79422f17c01e4894b5f4f588d331ebfa28653d42ae832dc59e38c9798f6100bd600080516020610c02833981519152546001600160a01b031690565b604080516001600160a01b03928316815291841660208301520160405180910390a16100e881610157565b50565b6100f4816101f3565b6040516001600160a01b038216907fbc7cd75a20ee27fd9adebab32041f755214dbc6bffa90cc0225b39da2e5c2d3b90600090a250565b60606101508383604051806060016040528060278152602001610c2260279139610287565b9392505050565b6001600160a01b0381166101c15760405162461bcd60e51b815260206004820152602660248201527f455243313936373a206e65772061646d696e20697320746865207a65726f206160448201526564647265737360d01b60648201526084015b60405180910390fd5b80600080516020610c028339815191525b80546001600160a01b0319166001600160a01b039290921691909117905550565b6001600160a01b0381163b6102605760405162461bcd60e51b815260206004820152602d60248201527f455243313936373a206e657720696d706c656d656e746174696f6e206973206e60448201526c1bdd08184818dbdb9d1c9858dd609a1b60648201526084016101b8565b807f360894a13ba1a3210667c828492db98dca3e2076cc3735a920a3ca505d382bbc6101d2565b60606001600160a01b0384163b6102ef5760405162461bcd60e51b815260206004820152602660248201527f416464726573733a2064656c65676174652063616c6c20746f206e6f6e2d636f6044820152651b9d1c9858dd60d21b60648201526084016101b8565b600080856001600160a01b03168560405161030a91906104ca565b600060405180830381855af49150503d8060008114610345576040519150601f19603f3d011682016040523d82523d6000602084013e61034a565b606091505b50909250905061035b828286610365565b9695505050505050565b60608315610374575081610150565b8251156103845782518084602001fd5b8160405162461bcd60e51b81526004016101b891906104e6565b80516001600160a01b03811681146103b557600080fd5b919050565b634e487b7160e01b600052604160045260246000fd5b60005b838110156103eb5781810151838201526020016103d3565b50506000910152565b60008060006060848603121561040957600080fd5b6104128461039e565b92506104206020850161039e565b60408501519092506001600160401b0381111561043c57600080fd5b8401601f8101861361044d57600080fd5b80516001600160401b03811115610466576104666103ba565b604051601f8201601f19908116603f011681016001600160401b0381118282101715610494576104946103ba565b6040528181528282016020018810156104ac57600080fd5b6104bd8260208301602086016103d0565b8093505050509250925092565b600082516104dc8184602087016103d0565b9190910192915050565b60208152600082518060208401526105058160408501602087016103d0565b601f01601f19169190910160400192915050565b6106da806105286000396000f3fe6080604052600436106100385760003560e01c80633659cfe61461004f5780634f1ef2861461006f578063d133576a1461008257610047565b36610047576100456100a2565b005b6100456100a2565b34801561005b57600080fd5b5061004561006a36600461049b565b6100b4565b61004561007d3660046104b6565b6100f1565b34801561008e57600080fd5b5061004561009d366004610551565b610158565b6100b26100ad610160565b61016f565b565b6100bc61019a565b6001600160a01b031633036100e9576100e6816040518060200160405280600081525060006101cd565b50565b6100e66100a2565b6100f961019a565b6001600160a01b031633036101505761014b8383838080601f016020809104026020016040519081016040528093929190818152602001838380828437600092019190915250600192506101cd915050565b505050565b61014b6100a2565b6100e66101f2565b600061016a610202565b905090565b3660008037600080366000845af43d806000803e81801561018f57816000f35b816000fd5b50505050565b60007fb53127684a568b3173ae13b9f8a6016e243e63b6e8ee1178d6a717850b5d61035b546001600160a01b0316919050565b6101d68361022a565b6000825111806101e35750805b1561014b57610194838361026a565b6100b26101fd610160565b610296565b60007f360894a13ba1a3210667c828492db98dca3e2076cc3735a920a3ca505d382bbc6101be565b610233816102b6565b6040516001600160a01b038216907fbc7cd75a20ee27fd9adebab32041f755214dbc6bffa90cc0225b39da2e5c2d3b90600090a250565b606061028f838360405180606001604052806027815260200161067e60279139610369565b9392505050565b3660008037600080366044845af43d806000803e81801561018f57816000f35b6001600160a01b0381163b6103285760405162461bcd60e51b815260206004820152602d60248201527f455243313936373a206e657720696d706c656d656e746174696f6e206973206e60448201526c1bdd08184818dbdb9d1c9858dd609a1b60648201526084015b60405180910390fd5b7f360894a13ba1a3210667c828492db98dca3e2076cc3735a920a3ca505d382bbc80546001600160a01b0319166001600160a01b0392909216919091179055565b60606001600160a01b0384163b6103d15760405162461bcd60e51b815260206004820152602660248201527f416464726573733a2064656c65676174652063616c6c20746f206e6f6e2d636f6044820152651b9d1c9858dd60d21b606482015260840161031f565b600080856001600160a01b0316856040516103ec919061062e565b600060405180830381855af49150503d8060008114610427576040519150601f19603f3d011682016040523d82523d6000602084013e61042c565b606091505b509150915061043c828286610446565b9695505050505050565b6060831561045557508161028f565b8251156104655782518084602001fd5b8160405162461bcd60e51b815260040161031f919061064a565b80356001600160a01b038116811461049657600080fd5b919050565b6000602082840312156104ad57600080fd5b61028f8261047f565b6000806000604084860312156104cb57600080fd5b6104d48461047f565b9250602084013567ffffffffffffffff8111156104f057600080fd5b8401601f8101861361050157600080fd5b803567ffffffffffffffff81111561051857600080fd5b86602082840101111561052a57600080fd5b939660209190910195509293505050565b634e487b7160e01b600052604160045260246000fd5b60006020828403121561056357600080fd5b813567ffffffffffffffff81111561057a57600080fd5b8201601f8101841361058b57600080fd5b803567ffffffffffffffff8111156105a5576105a561053b565b604051601f8201601f19908116603f0116810167ffffffffffffffff811182821017156105d4576105d461053b565b6040528181528282016020018610156105ec57600080fd5b81602084016020830137600091810160200191909152949350505050565b60005b8381101561062557818101518382015260200161060d565b50506000910152565b6000825161064081846020870161060a565b9190910192915050565b602081526000825180602084015261066981604085016020870161060a565b601f01601f1916919091016040019291505056fe416464726573733a206c6f772d6c6576656c2064656c65676174652063616c6c206661696c6564a26469706673582212205696e8e90d55fc66977dcb44f8845ffa9da84e692bc297c16f5ed61b7881467c64736f6c634300081a0033b53127684a568b3173ae13b9f8a6016e243e63b6e8ee1178d6a717850b5d6103416464726573733a206c6f772d6c6576656c2064656c65676174652063616c6c206661696c65646080604052348015600f57600080fd5b5060405161129f38038061129f833981016040819052602c916087565b600280546001600160a01b039384166001600160a01b031991821617909155600480549290931691811691909117909155600380549091163317905560b5565b80516001600160a01b0381168114608257600080fd5b919050565b60008060408385031215609957600080fd5b60a083606c565b915060ac60208401606c565b90509250929050565b6111db806100c46000396000f3fe608060405234801561001057600080fd5b50600436106100575760003560e01c806312c3a2a51461005c5780635a5a2374146100835780637a7499921461009857806390cb62aa146100ab578063c5bb1844146100bd575b600080fd5b61006f61006a366004610cc7565b6100d0565b604051901515815260200160405180910390f35b610096610091366004610de8565b610467565b005b6100966100a6366004610de8565b610589565b6100966100b9366004610e24565b5050565b6100966100cb366004610de8565b61099f565b6002546000906001600160a01b031633146101425760405162461bcd60e51b815260206004820152602760248201527f506172616d4d6f64756c653a646574656374206f6e6c7920726f757465722063604482015266185b8818d85b1b60ca1b60648201526084015b60405180910390fd5b825161014f906020610e89565b61015a906004610ea6565b82511461019d5760405162461bcd60e51b81526020600482015260116024820152700cae4e4dee440c8c2e8c240d8cadccee8d607b1b6044820152606401610139565b60005b8351816001600160401b0316101561045c576001600160a01b0385166000908152602081905260408120816101d486610eb9565b6001600160e01b0319168152602080820192909252604090810160009081206001600160401b038616825283528181206001600160a01b038a168252600190935290812091925061022486610eb9565b6001600160e01b0319168152602080820192909252604090810160009081206001600160401b038616825290925281205460ff1615159003610266575061044a565b7fec13d6d12b88433319b64e1065a96ea19cd330ef6603f5f6fb685dde3959a32085836001600160401b0316815181106102a2576102a2610ef7565b6020026020010151805190602001200361044857600182016020028401600401518060006102d261010083610f23565b905060006102e261010084610f37565b60008381526002870160205260409020549091506001821b90811615610384577f2ba3264056a8549a4ad6df9d0a5346e803ad37fc2afb3866295d13acdc17d5bb8b61032d8b610eb9565b898760405161033f9493929190610f4b565b60405180910390a160405162461bcd60e51b81526020600482015260126024820152716465746563743a6572726f7220706172616d60701b6044820152606401610139565b60005b60018701546001600160401b038216101561044157600087600101826001600160401b0316815481106103bc576103bc610ef7565b6000918252602080832090910154808352908a90526040909120549091508187108015906103ea5750808711155b1561042c577f2ba3264056a8549a4ad6df9d0a5346e803ad37fc2afb3866295d13acdc17d5bb8e61041a8e610eb9565b8c8a60405161033f9493929190610f4b565b5050808061043990610f84565b915050610387565b5050505050505b505b8061045481610f84565b9150506101a0565b506001949350505050565b6002546001600160a01b031633148061048a57506004546001600160a01b031633145b8061049f57506003546001600160a01b031633145b6104bb5760405162461bcd60e51b815260040161013990610faf565b6000806000838060200190518101906104d4919061101a565b604080516001600160a01b03841681526001600160e01b0319851660208201526001600160401b03831681830152905193965091945092507fb4a5222b36ff1dff026fb472b40d570b252a72d7a856b5110764c35fbeffb0f8919081900360600190a16001600160a01b0382166000908152602081815260408083206001600160e01b03198716845282528083206001600160401b03851684529091528120906105816001830182610bb0565b505050505050565b6002546001600160a01b03163314806105ac57506004546001600160a01b031633145b806105c157506003546001600160a01b031633145b6105dd5760405162461bcd60e51b815260040161013990610faf565b6000806000806000858060200190518101906105f9919061106f565b94509450945094509450801515600115150361071c57600061061d61010084610f23565b9050600061062d61010085610f37565b6001600160a01b0387166000908152602081815260408083206001600160e01b03198c16845282528083206001600160401b038a16845282528083208684526002019091529020549091506001821b90811615610714576001600160a01b0387166000908152602081815260408083206001600160e01b03198c16845282528083206001600160401b038a16845282528083208684526002019091529081902080548319169055517f5d5c716f69668544b1f5a3a9d84e2c9c9f0bfdb9848e73a75e132ddaed7d6e419061070b9089908b908a908a906001906110d0565b60405180910390a15b505050610581565b6001600160a01b0384166000908152602081815260408083206001600160e01b03198916845282528083206001600160401b0387168452909152812060010154905b81816001600160401b03161015610910576001600160a01b0386166000908152602081815260408083206001600160e01b03198b16845282528083206001600160401b03808a16855292529091206001018054869284169081106107c4576107c4610ef7565b9060005260206000200154036108fe576001600160a01b0386166000908152602081815260408083206001600160e01b03198b16845282528083206001600160401b038916845290915290206001908101906108209084611113565b8154811061083057610830610ef7565b60009182526020808320909101546001600160a01b038916835282825260408084206001600160e01b03198c16855283528084206001600160401b03808b168652935290922060010180549091841690811061088e5761088e610ef7565b60009182526020808320909101929092556001600160a01b038816815280825260408082206001600160e01b03198b16835283528082206001600160401b0389168352909252206001018054806108e7576108e7611126565b600190038181906000526020600020016000905590555b8061090881610f84565b91505061075e565b507f5d5c716f69668544b1f5a3a9d84e2c9c9f0bfdb9848e73a75e132ddaed7d6e418587868660006040516109499594939291906110d0565b60405180910390a1506001600160a01b0384166000908152602081815260408083206001600160e01b03198916845282528083206001600160401b03871684528252808320858452909152812055505050505050565b6002546001600160a01b03163314806109c257506004546001600160a01b031633145b806109d757506003546001600160a01b031633145b6109f35760405162461bcd60e51b815260040161013990610faf565b60008060008060008086806020019051810190610a10919061113c565b95509550955095509550955080151560011515148015610a2e575081155b15610aae576000610a4161010085610f23565b90506000610a5161010086610f37565b6001600160a01b0389166000908152602081815260408083206001600160e01b03198c16845282528083206001600160401b038b168452825280832095835260029095019052929092208054600190931b90921890915550610b0e565b6001600160a01b0386166000908152602081815260408083206001600160e01b03198916845282528083206001600160401b0388168452808352818420878552808452918420869055825260019081018054918201815583529120018390555b6001600160a01b03861660008181526001602081815260408084206001600160e01b03198b168086529083528185206001600160401b038b1680875290845294829020805460ff191690941790935580519485529084019190915282015260608101849052608081018390527f59c25ed54bbc87aaa7b87cd150743d4809f503771e6df32abc45401d3ea1c8bf9060a00160405180910390a150505050505050565b5080546000825590600052602060002090810190610bce9190610bd1565b50565b5b80821115610be65760008155600101610bd2565b5090565b6001600160a01b0381168114610bce57600080fd5b634e487b7160e01b600052604160045260246000fd5b604051601f8201601f191681016001600160401b0381118282101715610c3d57610c3d610bff565b604052919050565b6000806001600160401b03841115610c5f57610c5f610bff565b50601f8301601f1916602001610c7481610c15565b915050828152838383011115610c8957600080fd5b828260208301376000602084830101529392505050565b600082601f830112610cb157600080fd5b610cc083833560208501610c45565b9392505050565b600080600060608486031215610cdc57600080fd5b8335610ce781610bea565b925060208401356001600160401b03811115610d0257600080fd5b8401601f81018613610d1357600080fd5b80356001600160401b03811115610d2c57610d2c610bff565b8060051b610d3c60208201610c15565b91825260208184018101929081019089841115610d5857600080fd5b6020850192505b83831015610db25782356001600160401b03811115610d7d57600080fd5b8501603f81018b13610d8e57600080fd5b610da08b602083013560408401610c45565b83525060209283019290910190610d5f565b9550505050604085013590506001600160401b03811115610dd257600080fd5b610dde86828701610ca0565b9150509250925092565b600060208284031215610dfa57600080fd5b81356001600160401b03811115610e1057600080fd5b610e1c84828501610ca0565b949350505050565b60008060408385031215610e3757600080fd5b8235610e4281610bea565b915060208301356001600160401b03811115610e5d57600080fd5b610e6985828601610ca0565b9150509250929050565b634e487b7160e01b600052601160045260246000fd5b8082028115828204841417610ea057610ea0610e73565b92915050565b80820180821115610ea057610ea0610e73565b805160208201516001600160e01b0319811691906004821015610ef0576001600160e01b0319600483900360031b81901b82161692505b5050919050565b634e487b7160e01b600052603260045260246000fd5b634e487b7160e01b600052601260045260246000fd5b600082610f3257610f32610f0d565b500490565b600082610f4657610f46610f0d565b500690565b6001600160a01b039490941684526001600160e01b03199290921660208401526001600160401b03166040830152606082015260800190565b60006001600160401b0382166001600160401b038103610fa657610fa6610e73565b60010192915050565b6020808252601d908201527f506172616d4d6f64756c653a7065726d697373696f6e2064656e696564000000604082015260600190565b80516001600160e01b031981168114610ffe57600080fd5b919050565b80516001600160401b0381168114610ffe57600080fd5b60008060006060848603121561102f57600080fd5b61103884610fe6565b9250602084015161104881610bea565b915061105660408501611003565b90509250925092565b80518015158114610ffe57600080fd5b600080600080600060a0868803121561108757600080fd5b61109086610fe6565b945060208601516110a081610bea565b93506110ae60408701611003565b606087015190935091506110c46080870161105f565b90509295509295909350565b6001600160a01b039590951685526001600160e01b03199390931660208501526001600160401b0391909116604084015260608301521515608082015260a00190565b81810381811115610ea057610ea0610e73565b634e487b7160e01b600052603160045260246000fd5b60008060008060008060c0878903121561115557600080fd5b865161116081610bea565b955061116e60208801610fe6565b945061117c60408801611003565b606088015160808901519195509350915061119960a0880161105f565b9050929550929550929556fea2646970667358221220d0944b7330fe8fdf76681e600929e5d49ea19f8e75c614e33df34b7d87e4ab8664736f6c634300081a00336080604052348015600f57600080fd5b50604051610ebe380380610ebe833981016040819052602c916087565b600480546001600160a01b039384166001600160a01b031991821617909155600580549290931691811691909117909155600380549091163317905560b5565b80516001600160a01b0381168114608257600080fd5b919050565b60008060408385031215609957600080fd5b60a083606c565b915060ac60208401606c565b90509250929050565b610dfa806100c46000396000f3fe608060405234801561001057600080fd5b50600436106100625760003560e01c806307fe0baf1461006757806312c3a2a51461007c5780635a5a2374146100a357806390cb62aa146100b65780639f4b06f2146100c8578063c5bb1844146100db575b600080fd5b61007a61007536600461097a565b6100ee565b005b61008f61008a3660046109f3565b610218565b604051901515815260200160405180910390f35b61007a6100b136600461097a565b61047f565b61007a6100c4366004610b01565b5050565b61007a6100d636600461097a565b6105c4565b61007a6100e936600461097a565b6106e1565b6004546001600160a01b031633148061011157506005546001600160a01b031633145b8061012657506003546001600160a01b031633145b61014b5760405162461bcd60e51b815260040161014290610b51565b60405180910390fd5b600080828060200190518101906101629190610b88565b6001600160a01b0382166000908152600260205260409020549193509150610100900460ff1615156001036102135760005b8151811015610211576001806000856001600160a01b03166001600160a01b0316815260200190815260200160002060008484815181106101d7576101d7610c3d565b6020908102919091018101516001600160a01b03168252810191909152604001600020805460ff1916911515919091179055600101610194565b505b505050565b6001600160a01b03831660009081526002602052604081205460ff161515600103610407576001600160a01b03841660009081526020819052604081209061025f84610c53565b6001600160e01b03191681526020808201929092526040908101600090812032825290925290205460ff16151560010361033357604080516001600160a01b03861681523260208201527f82403b27140cceb05f5d49fc32c69d1d866fb8dd7cce70c7f392c40116ea7bd4910160405180910390a160405162461bcd60e51b815260206004820152602e60248201527f6465746563743a626c61636b2061646472657373206163636573732046756e6360448201526d3a34b7b7103337b93134b23232b760911b6064820152608401610142565b6001600160a01b03841660009081526001602081815260408084203285529091529091205460ff161515900361040257604080516001600160a01b03861681523260208201527f82403b27140cceb05f5d49fc32c69d1d866fb8dd7cce70c7f392c40116ea7bd491015b60405180910390a160405162461bcd60e51b815260206004820152602c60248201527f6465746563743a626c61636b20616464726573732061636365737320476c6f6260448201526b30b6103337b93134b23232b760a11b6064820152608401610142565b610475565b6001600160a01b03841660009081526001602081815260408084203285529091529091205460ff161515900361047557604080516001600160a01b03861681523260208201527f82403b27140cceb05f5d49fc32c69d1d866fb8dd7cce70c7f392c40116ea7bd4910161039d565b5060019392505050565b6004546001600160a01b03163314806104a257506005546001600160a01b031633145b806104b757506003546001600160a01b031633145b6104d35760405162461bcd60e51b815260040161014290610b51565b6000806000838060200190518101906104ec9190610cae565b6001600160a01b038316600090815260026020526040902054929550909350915060ff161515600103610557576001600160a01b038084166000908152602081815260408083206001600160e01b0319871684528252808320938516835292905220805460ff191690555b6001600160a01b03838116600081815260016020908152604080832094861680845294825291829020805460ff1916905581519283528201929092527f7e45b6a41c29bfb5debd51de3c9e9ffb32120d9d04bc5ce45905a21df5456dd5910160405180910390a150505050565b6004546001600160a01b03163314806105e757506005546001600160a01b031633145b806105fc57506003546001600160a01b031633145b6106185760405162461bcd60e51b815260040161014290610b51565b6000806000838060200190518101906106319190610d07565b6001600160a01b038316600090815260026020526040902054929550909350915060ff16151582151514610684576001600160a01b0383166000908152600260205260409020805460ff19168315151790555b6001600160a01b03831660009081526002602052604090205460ff61010090910416151581151514610211576001600160a01b038316600090815260026020526040902080548215156101000261ff001990911617905550505050565b6004546001600160a01b031633148061070457506005546001600160a01b031633145b8061071957506003546001600160a01b031633145b6107355760405162461bcd60e51b815260040161014290610b51565b600080600080600080868060200190518101906107529190610d4c565b6001600160a01b038616600090815260026020526040812054969c50949a509298509096509450925061010090910460ff16151590036107b8576001600160a01b0386166000908152600260205260409020805486151561ffff19909116176101001790555b6001600160a01b03861660009081526002602052604090205460ff16151560011480156107e757506001811515145b15610832576001600160a01b038681166000908152602081815260408083206001600160e01b0319891684528252808320938716835292905220805460ff1916831515179055610864565b6001600160a01b038681166000908152600160209081526040808320938716835292905220805460ff19168315151790555b604080516001600160a01b038089168252851660208201527f088f2cca90351b0ea81ffaaeee539c0b9dcbebe45eb733de10374786b1c9dd52910160405180910390a150505050505050565b634e487b7160e01b600052604160045260246000fd5b604051601f8201601f1916810167ffffffffffffffff811182821017156108ef576108ef6108b0565b604052919050565b60008067ffffffffffffffff841115610912576109126108b0565b50601f8301601f1916602001610927816108c6565b91505082815283838301111561093c57600080fd5b828260208301376000602084830101529392505050565b600082601f83011261096457600080fd5b610973838335602085016108f7565b9392505050565b60006020828403121561098c57600080fd5b813567ffffffffffffffff8111156109a357600080fd5b6109af84828501610953565b949350505050565b6001600160a01b03811681146109cc57600080fd5b50565b600067ffffffffffffffff8211156109e9576109e96108b0565b5060051b60200190565b600080600060608486031215610a0857600080fd5b8335610a13816109b7565b9250602084013567ffffffffffffffff811115610a2f57600080fd5b8401601f81018613610a4057600080fd5b8035610a53610a4e826109cf565b6108c6565b8082825260208201915060208360051b850101925088831115610a7557600080fd5b602084015b83811015610acb57803567ffffffffffffffff811115610a9957600080fd5b8501603f81018b13610aaa57600080fd5b610abc8b6020830135604084016108f7565b84525060209283019201610a7a565b509450505050604084013567ffffffffffffffff811115610aeb57600080fd5b610af786828701610953565b9150509250925092565b60008060408385031215610b1457600080fd5b8235610b1f816109b7565b9150602083013567ffffffffffffffff811115610b3b57600080fd5b610b4785828601610953565b9150509250929050565b6020808252601d908201527f506172616d4d6f64756c653a7065726d697373696f6e2064656e696564000000604082015260600190565b60008060408385031215610b9b57600080fd5b8251610ba6816109b7565b602084015190925067ffffffffffffffff811115610bc357600080fd5b8301601f81018513610bd457600080fd5b8051610be2610a4e826109cf565b8082825260208201915060208360051b850101925087831115610c0457600080fd5b6020840193505b82841015610c2f578351610c1e816109b7565b825260209384019390910190610c0b565b809450505050509250929050565b634e487b7160e01b600052603260045260246000fd5b805160208201516001600160e01b0319811691906004821015610c8a576001600160e01b0319600483900360031b81901b82161692505b5050919050565b80516001600160e01b031981168114610ca957600080fd5b919050565b600080600060608486031215610cc357600080fd5b8351610cce816109b7565b9250610cdc60208501610c91565b91506040840151610cec816109b7565b809150509250925092565b80518015158114610ca957600080fd5b600080600060608486031215610d1c57600080fd5b8351610d27816109b7565b9250610d3560208501610cf7565b9150610d4360408501610cf7565b90509250925092565b60008060008060008060c08789031215610d6557600080fd5b8651610d70816109b7565b9550610d7e60208801610cf7565b9450610d8c60408801610c91565b93506060870151610d9c816109b7565b9250610daa60808801610cf7565b9150610db860a08801610cf7565b9050929550929550929556fea2646970667358221220f7666db06038b6a4453e9a9c0007b04f143e67499d921159ef084003d70119ba64736f6c634300081a00336080604052348015600f57600080fd5b506040516108ca3803806108ca833981016040819052602c916087565b600180546001600160a01b039384166001600160a01b031991821617909155600380549290931691811691909117909155600280549091163317905560b5565b80516001600160a01b0381168114608257600080fd5b919050565b60008060408385031215609957600080fd5b60a083606c565b915060ac60208401606c565b90509250929050565b610806806100c46000396000f3fe608060405234801561001057600080fd5b50600436106100625760003560e01c806312c3a2a514610067578063481c6a751461008f5780635a5a2374146100ba5780637b103999146100cf578063c5bb1844146100e2578063f887ea40146100f5575b600080fd5b61007a610075366004610523565b610108565b60405190151581526020015b60405180910390f35b6002546100a2906001600160a01b031681565b6040516001600160a01b039091168152602001610086565b6100cd6100c8366004610648565b6102cb565b005b6003546100a2906001600160a01b031681565b6100cd6100f0366004610648565b6103a6565b6001546100a2906001600160a01b031681565b6001546000906001600160a01b031633146101865760405162461bcd60e51b815260206004820152603360248201527f5265656e7472616e63794465746563744d6f64756c653a20646574656374206f6044820152721b9b1e481c9bdd5d195c8818d85b8818d85b1b606a1b60648201526084015b60405180910390fd5b600061019183610685565b4360008181526020818152604080832032845282528083206001600160a01b038b16845282528083206001600160e01b0319861684529091529020549192509060038110610277576040516001600160e01b031984169032906001600160a01b038a16907fa3ff03009585a7c5e261b0fdd6061876b6ed6ea7c3cb596a150f1f8cca3596a490600090a460405162461bcd60e51b815260206004820152602b60248201527f5265656e7472616e63794465746563744d6f64756c653a207265656e7472616e60448201526a18de4819195d1958dd195960aa1b606482015260840161017d565b6102828160016106c3565b60008381526020818152604080832032845282528083206001600160a01b038c16845282528083206001600160e01b031988168452909152902055600193505050509392505050565b6001546001600160a01b03163314806102ee57506003546001600160a01b031633145b8061030357506002546001600160a01b031633145b61031f5760405162461bcd60e51b815260040161017d906106ea565b600080828060200190518101906103369190610733565b90925090506001600160a01b0382166103615760405162461bcd60e51b815260040161017d9061077a565b6040516001600160e01b03198216906001600160a01b038416907f2ed446abbd5564d8bcb0d2dcbe720f5b57f62ed54c6c92b629dbf8468e553fea90600090a3505050565b6001546001600160a01b03163314806103c957506003546001600160a01b031633145b806103de57506002546001600160a01b031633145b6103fa5760405162461bcd60e51b815260040161017d906106ea565b600080828060200190518101906104119190610733565b90925090506001600160a01b03821661043c5760405162461bcd60e51b815260040161017d9061077a565b505050565b6001600160a01b038116811461045657600080fd5b50565b634e487b7160e01b600052604160045260246000fd5b604051601f8201601f1916810167ffffffffffffffff8111828210171561049857610498610459565b604052919050565b60008067ffffffffffffffff8411156104bb576104bb610459565b50601f8301601f19166020016104d08161046f565b9150508281528383830111156104e557600080fd5b828260208301376000602084830101529392505050565b600082601f83011261050d57600080fd5b61051c838335602085016104a0565b9392505050565b60008060006060848603121561053857600080fd5b833561054381610441565b9250602084013567ffffffffffffffff81111561055f57600080fd5b8401601f8101861361057057600080fd5b803567ffffffffffffffff81111561058a5761058a610459565b8060051b61059a6020820161046f565b918252602081840181019290810190898411156105b657600080fd5b6020850192505b8383101561061157823567ffffffffffffffff8111156105dc57600080fd5b8501603f81018b136105ed57600080fd5b6105ff8b6020830135604084016104a0565b835250602092830192909101906105bd565b95505050506040850135905067ffffffffffffffff81111561063257600080fd5b61063e868287016104fc565b9150509250925092565b60006020828403121561065a57600080fd5b813567ffffffffffffffff81111561067157600080fd5b61067d848285016104fc565b949350505050565b805160208201516001600160e01b03198116919060048210156106bc576001600160e01b0319600483900360031b81901b82161692505b5050919050565b808201808211156106e457634e487b7160e01b600052601160045260246000fd5b92915050565b60208082526029908201527f5265656e7472616e63794465746563744d6f64756c653a207065726d697373696040820152681bdb8819195b9a595960ba1b606082015260800190565b6000806040838503121561074657600080fd5b825161075181610441565b60208401519092506001600160e01b03198116811461076f57600080fd5b809150509250929050565b60208082526036908201527f5265656e7472616e63794465746563744d6f64756c653a2070726f6a65637420604082015275616464726573732063616e6e6f74206265207a65726f60501b60608201526080019056fea264697066735822122016c9f69b7bbe61c278be7c42c0ad9db5e8d351362183e104764c46bd27891c4364736f6c634300081a0033",
        "linkReferences": {}
    },
    "methodIdentifiers": {
        "auth_detect()": "13830a2c",
        "batch_setblack(address,address[])": "c20b43af",
        "param_detect()": "b7fd29ec",
        "proxy_registry()": "78db3714",
        "proxy_router()": "b804e663",
        "reen_detect()": "d7069568",
        "registry()": "7b103999",
        "router()": "f887ea40",
        "setProject(address,bytes4,string[],address[])": "70588565"
    },
    "id": 39
}