{
    "abi": [
        {
            "type": "constructor",
            "inputs": [
                {
                    "name": "_logic",
                    "type": "address",
                    "internalType": "address"
                },
                {
                    "name": "admin_",
                    "type": "address",
                    "internalType": "address"
                },
                {
                    "name": "_data",
                    "type": "bytes",
                    "internalType": "bytes"
                }
            ],
            "stateMutability": "payable"
        },
        {
            "type": "fallback",
            "stateMutability": "payable"
        },
        {
            "type": "receive",
            "stateMutability": "payable"
        },
        {
            "type": "function",
            "name": "CallOn",
            "inputs": [
                {
                    "name": "_data",
                    "type": "bytes",
                    "internalType": "bytes"
                }
            ],
            "outputs": [],
            "stateMutability": "nonpayable"
        },
        {
            "type": "function",
            "name": "upgradeTo",
            "inputs": [
                {
                    "name": "newImplementation",
                    "type": "address",
                    "internalType": "address"
                }
            ],
            "outputs": [],
            "stateMutability": "nonpayable"
        },
        {
            "type": "function",
            "name": "upgradeToAndCall",
            "inputs": [
                {
                    "name": "newImplementation",
                    "type": "address",
                    "internalType": "address"
                },
                {
                    "name": "data",
                    "type": "bytes",
                    "internalType": "bytes"
                }
            ],
            "outputs": [],
            "stateMutability": "payable"
        },
        {
            "type": "event",
            "name": "AdminChanged",
            "inputs": [
                {
                    "name": "previousAdmin",
                    "type": "address",
                    "indexed": false,
                    "internalType": "address"
                },
                {
                    "name": "newAdmin",
                    "type": "address",
                    "indexed": false,
                    "internalType": "address"
                }
            ],
            "anonymous": false
        },
        {
            "type": "event",
            "name": "BeaconUpgraded",
            "inputs": [
                {
                    "name": "beacon",
                    "type": "address",
                    "indexed": true,
                    "internalType": "address"
                }
            ],
            "anonymous": false
        },
        {
            "type": "event",
            "name": "Upgraded",
            "inputs": [
                {
                    "name": "implementation",
                    "type": "address",
                    "indexed": true,
                    "internalType": "address"
                }
            ],
            "anonymous": false
        }
    ],
    "bytecode": {
        "object": "0x6080604052604051610c3c380380610c3c833981016040819052610022916103e7565b828161003082826000610044565b5061003c905082610070565b50505061050c565b61004d836100de565b60008251118061005a5750805b1561006b57610069838361011e565b505b505050565b7f7e644d79422f17c01e4894b5f4f588d331ebfa28653d42ae832dc59e38c9798f6100b0600080516020610bf5833981519152546001600160a01b031690565b604080516001600160a01b03928316815291841660208301520160405180910390a16100db8161014a565b50565b6100e7816101e6565b6040516001600160a01b038216907fbc7cd75a20ee27fd9adebab32041f755214dbc6bffa90cc0225b39da2e5c2d3b90600090a250565b60606101438383604051806060016040528060278152602001610c156027913961027a565b9392505050565b6001600160a01b0381166101b45760405162461bcd60e51b815260206004820152602660248201527f455243313936373a206e65772061646d696e20697320746865207a65726f206160448201526564647265737360d01b60648201526084015b60405180910390fd5b80600080516020610bf58339815191525b80546001600160a01b0319166001600160a01b039290921691909117905550565b6001600160a01b0381163b6102535760405162461bcd60e51b815260206004820152602d60248201527f455243313936373a206e657720696d706c656d656e746174696f6e206973206e60448201526c1bdd08184818dbdb9d1c9858dd609a1b60648201526084016101ab565b807f360894a13ba1a3210667c828492db98dca3e2076cc3735a920a3ca505d382bbc6101c5565b60606001600160a01b0384163b6102e25760405162461bcd60e51b815260206004820152602660248201527f416464726573733a2064656c65676174652063616c6c20746f206e6f6e2d636f6044820152651b9d1c9858dd60d21b60648201526084016101ab565b600080856001600160a01b0316856040516102fd91906104bd565b600060405180830381855af49150503d8060008114610338576040519150601f19603f3d011682016040523d82523d6000602084013e61033d565b606091505b50909250905061034e828286610358565b9695505050505050565b60608315610367575081610143565b8251156103775782518084602001fd5b8160405162461bcd60e51b81526004016101ab91906104d9565b80516001600160a01b03811681146103a857600080fd5b919050565b634e487b7160e01b600052604160045260246000fd5b60005b838110156103de5781810151838201526020016103c6565b50506000910152565b6000806000606084860312156103fc57600080fd5b61040584610391565b925061041360208501610391565b60408501519092506001600160401b0381111561042f57600080fd5b8401601f8101861361044057600080fd5b80516001600160401b03811115610459576104596103ad565b604051601f8201601f19908116603f011681016001600160401b0381118282101715610487576104876103ad565b60405281815282820160200188101561049f57600080fd5b6104b08260208301602086016103c3565b8093505050509250925092565b600082516104cf8184602087016103c3565b9190910192915050565b60208152600082518060208401526104f88160408501602087016103c3565b601f01601f19169190910160400192915050565b6106da8061051b6000396000f3fe6080604052600436106100385760003560e01c80633659cfe61461004f5780634f1ef2861461006f578063d133576a1461008257610047565b36610047576100456100a2565b005b6100456100a2565b34801561005b57600080fd5b5061004561006a36600461049b565b6100b4565b61004561007d3660046104b6565b6100f1565b34801561008e57600080fd5b5061004561009d366004610551565b610158565b6100b26100ad610160565b61016f565b565b6100bc61019a565b6001600160a01b031633036100e9576100e6816040518060200160405280600081525060006101cd565b50565b6100e66100a2565b6100f961019a565b6001600160a01b031633036101505761014b8383838080601f016020809104026020016040519081016040528093929190818152602001838380828437600092019190915250600192506101cd915050565b505050565b61014b6100a2565b6100e66101f2565b600061016a610202565b905090565b3660008037600080366000845af43d806000803e81801561018f57816000f35b816000fd5b50505050565b60007fb53127684a568b3173ae13b9f8a6016e243e63b6e8ee1178d6a717850b5d61035b546001600160a01b0316919050565b6101d68361022a565b6000825111806101e35750805b1561014b57610194838361026a565b6100b26101fd610160565b610296565b60007f360894a13ba1a3210667c828492db98dca3e2076cc3735a920a3ca505d382bbc6101be565b610233816102b6565b6040516001600160a01b038216907fbc7cd75a20ee27fd9adebab32041f755214dbc6bffa90cc0225b39da2e5c2d3b90600090a250565b606061028f838360405180606001604052806027815260200161067e60279139610369565b9392505050565b3660008037600080366044845af43d806000803e81801561018f57816000f35b6001600160a01b0381163b6103285760405162461bcd60e51b815260206004820152602d60248201527f455243313936373a206e657720696d706c656d656e746174696f6e206973206e60448201526c1bdd08184818dbdb9d1c9858dd609a1b60648201526084015b60405180910390fd5b7f360894a13ba1a3210667c828492db98dca3e2076cc3735a920a3ca505d382bbc80546001600160a01b0319166001600160a01b0392909216919091179055565b60606001600160a01b0384163b6103d15760405162461bcd60e51b815260206004820152602660248201527f416464726573733a2064656c65676174652063616c6c20746f206e6f6e2d636f6044820152651b9d1c9858dd60d21b606482015260840161031f565b600080856001600160a01b0316856040516103ec919061062e565b600060405180830381855af49150503d8060008114610427576040519150601f19603f3d011682016040523d82523d6000602084013e61042c565b606091505b509150915061043c828286610446565b9695505050505050565b6060831561045557508161028f565b8251156104655782518084602001fd5b8160405162461bcd60e51b815260040161031f919061064a565b80356001600160a01b038116811461049657600080fd5b919050565b6000602082840312156104ad57600080fd5b61028f8261047f565b6000806000604084860312156104cb57600080fd5b6104d48461047f565b9250602084013567ffffffffffffffff8111156104f057600080fd5b8401601f8101861361050157600080fd5b803567ffffffffffffffff81111561051857600080fd5b86602082840101111561052a57600080fd5b939660209190910195509293505050565b634e487b7160e01b600052604160045260246000fd5b60006020828403121561056357600080fd5b813567ffffffffffffffff81111561057a57600080fd5b8201601f8101841361058b57600080fd5b803567ffffffffffffffff8111156105a5576105a561053b565b604051601f8201601f19908116603f0116810167ffffffffffffffff811182821017156105d4576105d461053b565b6040528181528282016020018610156105ec57600080fd5b81602084016020830137600091810160200191909152949350505050565b60005b8381101561062557818101518382015260200161060d565b50506000910152565b6000825161064081846020870161060a565b9190910192915050565b602081526000825180602084015261066981604085016020870161060a565b601f01601f1916919091016040019291505056fe416464726573733a206c6f772d6c6576656c2064656c65676174652063616c6c206661696c6564a26469706673582212201d17e3fecad2c8dfd0e499ed8a5f2952b570df225a4e1ab254a6135b9d2b34b064736f6c634300081a0033b53127684a568b3173ae13b9f8a6016e243e63b6e8ee1178d6a717850b5d6103416464726573733a206c6f772d6c6576656c2064656c65676174652063616c6c206661696c6564",
        "linkReferences": {}
    },
    "methodIdentifiers": {
        "CallOn(bytes)": "d133576a",
        "upgradeTo(address)": "3659cfe6",
        "upgradeToAndCall(address,bytes)": "4f1ef286"
    },
    "id": 39
}