{
    "abi": [
        {
            "type": "function",
            "name": "addModule",
            "inputs": [
                {
                    "name": "modAddreess",
                    "type": "address",
                    "internalType": "address"
                },
                {
                    "name": "modAdmin",
                    "type": "address",
                    "internalType": "address"
                },
                {
                    "name": "description",
                    "type": "string",
                    "internalType": "string"
                },
                {
                    "name": "enable",
                    "type": "bool",
                    "internalType": "bool"
                }
            ],
            "outputs": [],
            "stateMutability": "nonpayable"
        },
        {
            "type": "function",
            "name": "getAllModule",
            "inputs": [],
            "outputs": [
                {
                    "name": "",
                    "type": "tuple[]",
                    "internalType": "struct FireWallRegistryV2.ModuleInfo[]",
                    "components": [
                        {
                            "name": "modAddress",
                            "type": "address",
                            "internalType": "address"
                        },
                        {
                            "name": "modAdmin",
                            "type": "address",
                            "internalType": "address"
                        },
                        {
                            "name": "description",
                            "type": "string",
                            "internalType": "string"
                        },
                        {
                            "name": "enable",
                            "type": "bool",
                            "internalType": "bool"
                        }
                    ]
                }
            ],
            "stateMutability": "view"
        },
        {
            "type": "function",
            "name": "getDetectModAddress",
            "inputs": [
                {
                    "name": "project",
                    "type": "address",
                    "internalType": "address"
                },
                {
                    "name": "funcSig",
                    "type": "bytes4",
                    "internalType": "bytes4"
                }
            ],
            "outputs": [
                {
                    "name": "",
                    "type": "address[]",
                    "internalType": "address[]"
                }
            ],
            "stateMutability": "view"
        },
        {
            "type": "function",
            "name": "getProtectInfo",
            "inputs": [
                {
                    "name": "project",
                    "type": "address",
                    "internalType": "address"
                },
                {
                    "name": "funcSig",
                    "type": "bytes4",
                    "internalType": "bytes4"
                }
            ],
            "outputs": [
                {
                    "name": "",
                    "type": "tuple",
                    "internalType": "struct FireWallRegistryV2.ProtectInfo",
                    "components": [
                        {
                            "name": "params",
                            "type": "string[]",
                            "internalType": "string[]"
                        },
                        {
                            "name": "enableModules",
                            "type": "address[]",
                            "internalType": "address[]"
                        },
                        {
                            "name": "is_pause",
                            "type": "bool",
                            "internalType": "bool"
                        }
                    ]
                }
            ],
            "stateMutability": "view"
        },
        {
            "type": "function",
            "name": "initialize",
            "inputs": [
                {
                    "name": "_owner",
                    "type": "address",
                    "internalType": "address"
                }
            ],
            "outputs": [],
            "stateMutability": "nonpayable"
        },
        {
            "type": "function",
            "name": "moduleIndex",
            "inputs": [
                {
                    "name": "",
                    "type": "address",
                    "internalType": "address"
                }
            ],
            "outputs": [
                {
                    "name": "",
                    "type": "uint64",
                    "internalType": "uint64"
                }
            ],
            "stateMutability": "view"
        },
        {
            "type": "function",
            "name": "moduleNames",
            "inputs": [
                {
                    "name": "",
                    "type": "address",
                    "internalType": "address"
                }
            ],
            "outputs": [
                {
                    "name": "",
                    "type": "string",
                    "internalType": "string"
                }
            ],
            "stateMutability": "view"
        },
        {
            "type": "function",
            "name": "pauseAllModule",
            "inputs": [],
            "outputs": [],
            "stateMutability": "nonpayable"
        },
        {
            "type": "function",
            "name": "pauseFunction",
            "inputs": [
                {
                    "name": "project",
                    "type": "address",
                    "internalType": "address"
                },
                {
                    "name": "funcSig",
                    "type": "bytes4",
                    "internalType": "bytes4"
                }
            ],
            "outputs": [],
            "stateMutability": "nonpayable"
        },
        {
            "type": "function",
            "name": "pauseMap",
            "inputs": [
                {
                    "name": "",
                    "type": "address",
                    "internalType": "address"
                }
            ],
            "outputs": [
                {
                    "name": "",
                    "type": "bool",
                    "internalType": "bool"
                }
            ],
            "stateMutability": "view"
        },
        {
            "type": "function",
            "name": "pauseModule",
            "inputs": [
                {
                    "name": "module_address",
                    "type": "address",
                    "internalType": "address"
                }
            ],
            "outputs": [],
            "stateMutability": "nonpayable"
        },
        {
            "type": "function",
            "name": "pauseProject",
            "inputs": [
                {
                    "name": "project",
                    "type": "address",
                    "internalType": "address"
                }
            ],
            "outputs": [],
            "stateMutability": "nonpayable"
        },
        {
            "type": "function",
            "name": "register",
            "inputs": [
                {
                    "name": "project",
                    "type": "address",
                    "internalType": "address"
                },
                {
                    "name": "manager",
                    "type": "address",
                    "internalType": "address"
                },
                {
                    "name": "funcSig",
                    "type": "bytes4",
                    "internalType": "bytes4"
                },
                {
                    "name": "params",
                    "type": "string[]",
                    "internalType": "string[]"
                },
                {
                    "name": "enableModules",
                    "type": "address[]",
                    "internalType": "address[]"
                }
            ],
            "outputs": [],
            "stateMutability": "nonpayable"
        },
        {
            "type": "function",
            "name": "removeModule",
            "inputs": [
                {
                    "name": "modAddreess",
                    "type": "address",
                    "internalType": "address"
                }
            ],
            "outputs": [],
            "stateMutability": "nonpayable"
        },
        {
            "type": "function",
            "name": "removeModuleForProject",
            "inputs": [
                {
                    "name": "project",
                    "type": "address",
                    "internalType": "address"
                },
                {
                    "name": "funcSig",
                    "type": "bytes4",
                    "internalType": "bytes4"
                },
                {
                    "name": "remove_module_address",
                    "type": "address",
                    "internalType": "address"
                }
            ],
            "outputs": [],
            "stateMutability": "nonpayable"
        },
        {
            "type": "function",
            "name": "removeModuleInfo",
            "inputs": [
                {
                    "name": "module_address",
                    "type": "address",
                    "internalType": "address"
                },
                {
                    "name": "data",
                    "type": "bytes",
                    "internalType": "bytes"
                }
            ],
            "outputs": [],
            "stateMutability": "nonpayable"
        },
        {
            "type": "function",
            "name": "setBlackListMode",
            "inputs": [
                {
                    "name": "module_address",
                    "type": "address",
                    "internalType": "address"
                },
                {
                    "name": "data",
                    "type": "bytes",
                    "internalType": "bytes"
                }
            ],
            "outputs": [],
            "stateMutability": "nonpayable"
        },
        {
            "type": "function",
            "name": "setOwner",
            "inputs": [
                {
                    "name": "new_owner",
                    "type": "address",
                    "internalType": "address"
                }
            ],
            "outputs": [],
            "stateMutability": "nonpayable"
        },
        {
            "type": "function",
            "name": "setProjectManager",
            "inputs": [
                {
                    "name": "project",
                    "type": "address",
                    "internalType": "address"
                },
                {
                    "name": "manager",
                    "type": "address",
                    "internalType": "address"
                }
            ],
            "outputs": [],
            "stateMutability": "nonpayable"
        },
        {
            "type": "function",
            "name": "unpauseAllModule",
            "inputs": [],
            "outputs": [],
            "stateMutability": "nonpayable"
        },
        {
            "type": "function",
            "name": "unpauseFunction",
            "inputs": [
                {
                    "name": "project",
                    "type": "address",
                    "internalType": "address"
                },
                {
                    "name": "funcSig",
                    "type": "bytes4",
                    "internalType": "bytes4"
                }
            ],
            "outputs": [],
            "stateMutability": "nonpayable"
        },
        {
            "type": "function",
            "name": "unpauseModule",
            "inputs": [
                {
                    "name": "module_address",
                    "type": "address",
                    "internalType": "address"
                }
            ],
            "outputs": [],
            "stateMutability": "nonpayable"
        },
        {
            "type": "function",
            "name": "unpauseProject",
            "inputs": [
                {
                    "name": "project",
                    "type": "address",
                    "internalType": "address"
                }
            ],
            "outputs": [],
            "stateMutability": "nonpayable"
        },
        {
            "type": "function",
            "name": "updataModuleInfo",
            "inputs": [
                {
                    "name": "module_address",
                    "type": "address",
                    "internalType": "address"
                },
                {
                    "name": "data",
                    "type": "bytes",
                    "internalType": "bytes"
                }
            ],
            "outputs": [],
            "stateMutability": "nonpayable"
        },
        {
            "type": "event",
            "name": "AddModule",
            "inputs": [
                {
                    "name": "detectModAddr",
                    "type": "address",
                    "indexed": false,
                    "internalType": "address"
                },
                {
                    "name": "detectModAdmin",
                    "type": "address",
                    "indexed": false,
                    "internalType": "address"
                },
                {
                    "name": "module_description",
                    "type": "string",
                    "indexed": false,
                    "internalType": "string"
                },
                {
                    "name": "enable",
                    "type": "bool",
                    "indexed": false,
                    "internalType": "bool"
                }
            ],
            "anonymous": false
        },
        {
            "type": "event",
            "name": "PauseDetect",
            "inputs": [],
            "anonymous": false
        },
        {
            "type": "event",
            "name": "PauseModule",
            "inputs": [
                {
                    "name": "module_address",
                    "type": "address",
                    "indexed": false,
                    "internalType": "address"
                }
            ],
            "anonymous": false
        },
        {
            "type": "event",
            "name": "RegisterInfo",
            "inputs": [
                {
                    "name": "project",
                    "type": "address",
                    "indexed": false,
                    "internalType": "address"
                },
                {
                    "name": "funcSig",
                    "type": "bytes4",
                    "indexed": false,
                    "internalType": "bytes4"
                },
                {
                    "name": "manager",
                    "type": "address",
                    "indexed": false,
                    "internalType": "address"
                },
                {
                    "name": "params",
                    "type": "string[]",
                    "indexed": false,
                    "internalType": "string[]"
                },
                {
                    "name": "enableModules",
                    "type": "address[]",
                    "indexed": false,
                    "internalType": "address[]"
                }
            ],
            "anonymous": false
        },
        {
            "type": "event",
            "name": "RemoveModule",
            "inputs": [
                {
                    "name": "module_description",
                    "type": "string",
                    "indexed": false,
                    "internalType": "string"
                },
                {
                    "name": "module_address",
                    "type": "address",
                    "indexed": false,
                    "internalType": "address"
                }
            ],
            "anonymous": false
        },
        {
            "type": "event",
            "name": "RemoveModuleForProject",
            "inputs": [
                {
                    "name": "project",
                    "type": "address",
                    "indexed": false,
                    "internalType": "address"
                },
                {
                    "name": "funcSig",
                    "type": "bytes4",
                    "indexed": false,
                    "internalType": "bytes4"
                },
                {
                    "name": "module_description",
                    "type": "string",
                    "indexed": false,
                    "internalType": "string"
                },
                {
                    "name": "module_address",
                    "type": "address",
                    "indexed": false,
                    "internalType": "address"
                }
            ],
            "anonymous": false
        },
        {
            "type": "event",
            "name": "RemoveModuleInfo",
            "inputs": [
                {
                    "name": "module_name",
                    "type": "string",
                    "indexed": false,
                    "internalType": "string"
                }
            ],
            "anonymous": false
        },
        {
            "type": "event",
            "name": "UnpauseModule",
            "inputs": [
                {
                    "name": "module_address",
                    "type": "address",
                    "indexed": false,
                    "internalType": "address"
                }
            ],
            "anonymous": false
        },
        {
            "type": "event",
            "name": "UpdateModuleInfo",
            "inputs": [
                {
                    "name": "module_name",
                    "type": "string",
                    "indexed": false,
                    "internalType": "string"
                }
            ],
            "anonymous": false
        },
        {
            "type": "event",
            "name": "UpdateModuleMode",
            "inputs": [
                {
                    "name": "module_name",
                    "type": "string",
                    "indexed": false,
                    "internalType": "string"
                }
            ],
            "anonymous": false
        },
        {
            "type": "event",
            "name": "pasueProjectFunctionInteract",
            "inputs": [
                {
                    "name": "project",
                    "type": "address",
                    "indexed": false,
                    "internalType": "address"
                },
                {
                    "name": "funcSig",
                    "type": "bytes4",
                    "indexed": false,
                    "internalType": "bytes4"
                }
            ],
            "anonymous": false
        },
        {
            "type": "event",
            "name": "pauseProjectInteract",
            "inputs": [
                {
                    "name": "project",
                    "type": "address",
                    "indexed": false,
                    "internalType": "address"
                }
            ],
            "anonymous": false
        }
    ],
    "bytecode": {
        "object": "0x6080604052348015600f57600080fd5b506125b98061001f6000396000f3fe608060405234801561001057600080fd5b50600436106101585760003560e01c806388db1a33116100c3578063ae289d6f1161007c578063ae289d6f146102fc578063b7cc1b2214610304578063c4d66de814610317578063cc863b7d1461032a578063d012b85b1461033d578063e6c2fa881461035057600080fd5b806388db1a33146102885780638c50221e1461029b57806393232a6d146102bb578063985107cf146102ce578063a0632461146102e1578063a07ce13b146102f457600080fd5b8063501e473f11610115578063501e473f146101f45780635523c1ad1461020957806367d165071461023c5780636be12c001461024f5780637b461f9d146102625780637e429e6e1461027557600080fd5b8063076cea121461015d57806313af40351461018657806334f6eccb1461019b578063350da345146101ae57806336b1ae16146101ce5780633c9f09b5146101e1575b600080fd5b61017061016b366004611a97565b610391565b60405161017d9190611aff565b60405180910390f35b610199610194366004611a97565b61042b565b005b6101996101a9366004611b2a565b610480565b6101c16101bc366004611b6d565b6106fe565b60405161017d9190611be5565b6101996101dc366004611c86565b61089c565b6101996101ef366004611d51565b6108f4565b6101fc6109cf565b60405161017d9190611db2565b61022c610217366004611a97565b60076020526000908152604090205460ff1681565b604051901515815260200161017d565b61019961024a366004611a97565b610af5565b61019961025d366004611d51565b610bb5565b610199610270366004611d51565b610c5a565b610199610283366004611b6d565b610d29565b610199610296366004611a97565b610e23565b6102ae6102a9366004611b6d565b610f37565b60405161017d9190611e55565b6101996102c9366004611a97565b610fc3565b6101996102dc366004611a97565b6110cf565b6101996102ef366004611a97565b611192565b610199611423565b6101996114e1565b610199610312366004611f1f565b611573565b610199610325366004611a97565b61045e565b610199610338366004612031565b6116c1565b61019961034b366004611b6d565b61185e565b61037961035e366004611a97565b6006602052600090815260409020546001600160401b031681565b6040516001600160401b03909116815260200161017d565b600560205260009081526040902080546103aa906120a6565b80601f01602080910402602001604051908101604052809291908181526020018280546103d6906120a6565b80156104235780601f106103f857610100808354040283529160200191610423565b820191906000526020600020905b81548152906001019060200180831161040657829003601f168201915b505050505081565b6000546001600160a01b0316331461045e5760405162461bcd60e51b8152600401610455906120e0565b60405180910390fd5b600080546001600160a01b0319166001600160a01b0392909216919091179055565b6001600160a01b03831660009081526002602090815260408083206001600160e01b0319861684528252808320600101805482518185028101850190935280835291929091908301828280156104ff57602002820191906000526020600020905b81546001600160a01b031681526001909101906020018083116104e1575b5050505050905060005b81518110156106965760008282815181106105265761052661210d565b60200260200101519050836001600160a01b0316816001600160a01b03160361068d5782600184516105589190612139565b815181106105685761056861210d565b6020908102919091018101516001600160a01b03881660009081526002835260408082206001600160e01b03198a168352909352919091206001018054849081106105b5576105b561210d565b600091825260208083209190910180546001600160a01b0319166001600160a01b0394851617905591881681526002825260408082206001600160e01b0319891683529092522060010180548061060e5761060e61214c565b60008281526020808220830160001990810180546001600160a01b03191690559092019092556001600160a01b03831682526005905260409081902090517f9f096b91955ec5d2ebca3fb74e03b849529129c42c11b5372f0151a876522b249161067d918991899186906121e5565b60405180910390a1505050505050565b50600101610509565b5060405162461bcd60e51b815260206004820152603660248201527f556e61626c6520746f2064656c657465206d6f64756c65206261736564206f6e6044820152751034b731b7b93932b1ba1034b73337b936b0ba34b7b760511b6064820152608401610455565b604080516060808201835280825260208201526000918101919091526001600160a01b03831660009081526002602090815260408083206001600160e01b03198616845282528083208151815460809481028201850190935260608101838152909491938593919285929185015b8282101561081857838290600052602060002001805461078b906120a6565b80601f01602080910402602001604051908101604052809291908181526020018280546107b7906120a6565b80156108045780601f106107d957610100808354040283529160200191610804565b820191906000526020600020905b8154815290600101906020018083116107e757829003601f168201915b50505050508152602001906001019061076c565b5050505081526020016001820180548060200260200160405190810160405280929190818152602001828054801561087957602002820191906000526020600020905b81546001600160a01b0316815260019091019060200180831161085b575b50505091835250506002919091015460ff16151560209091015290505b92915050565b6000546001600160a01b031633146108c65760405162461bcd60e51b8152600401610455906120e0565b6001600160a01b03918216600090815260016020526040902080546001600160a01b03191691909216179055565b6000546001600160a01b0316331461091e5760405162461bcd60e51b8152600401610455906120e0565b60405163e56ac77560e01b81526001600160a01b0383169063e56ac7759061094a908490600401611aff565b600060405180830381600087803b15801561096457600080fd5b505af1158015610978573d6000803e3d6000fd5b505050506001600160a01b0382166000908152600560205260409081902090517fe132b06589a2e3f79d9df69a863e3c576972c8222db8d5d5961a28739cf47b7b916109c391612232565b60405180910390a15050565b60606004805480602002602001604051908101604052809291908181526020016000905b82821015610aec576000848152602090819020604080516080810182526004860290920180546001600160a01b0390811684526001820154169383019390935260028301805492939291840191610a49906120a6565b80601f0160208091040260200160405190810160405280929190818152602001828054610a75906120a6565b8015610ac25780601f10610a9757610100808354040283529160200191610ac2565b820191906000526020600020905b815481529060010190602001808311610aa557829003601f168201915b50505091835250506003919091015460ff16151560209182015290825260019290920191016109f3565b50505050905090565b6000546001600160a01b03163314610b1f5760405162461bcd60e51b8152600401610455906120e0565b6001600160a01b038116600090815260066020526040812054600480546001600160401b03909216929183908110610b5957610b5961210d565b600091825260209182902060049190910201600301805460ff1916921515929092179091556040516001600160a01b03841681527f81f938aa5d8608f72b4bffc2765f635985759730b9ce3639f3de7c85a6770d7d91016109c3565b60405163316ec61160e21b81526001600160a01b0383169063c5bb184490610be1908490600401611aff565b600060405180830381600087803b158015610bfb57600080fd5b505af1158015610c0f573d6000803e3d6000fd5b505050506001600160a01b0382166000908152600560205260409081902090517f8d8a71c274459a3a61ad0a3c5b7123abc78a18bbc705c76574080240f00eb433916109c391612232565b6000546001600160a01b03163314610c845760405162461bcd60e51b8152600401610455906120e0565b60405163169688dd60e21b81526001600160a01b03831690635a5a237490610cb0908490600401611aff565b600060405180830381600087803b158015610cca57600080fd5b505af1158015610cde573d6000803e3d6000fd5b505050506001600160a01b0382166000908152600560205260409081902090517f3d6bcb3ba6563b92b6d7f33cf9c29f0488ed61a3824895f04fb56751de2dd38b916109c391612232565b6001600160a01b0382811660009081526001602052604090205416331480610d5b57506000546001600160a01b031633145b610dbb5760405162461bcd60e51b815260206004820152602b60248201527f52656769737472792d2d756e706175736546756e6374696f6e3a7065726d697360448201526a1cda5bdb8819195b9a595960aa1b6064820152608401610455565b6001600160a01b03821660009081526002602081815260408084206001600160e01b0319861685529091529182902001805460ff19169055517f3ec789ca270a19a21d684eafd603cc49dc39ac2e6f53196969d3eac6a338de2d906109c39084908490612245565b6000546001600160a01b03163314610e4d5760405162461bcd60e51b8152600401610455906120e0565b6001600160a01b0381811660009081526001602052604090205416331480610e7f57506000546001600160a01b031633145b610edc5760405162461bcd60e51b815260206004820152602860248201527f52656769737472792d2d706175736550726f6a6563743a7065726d697373696f6044820152671b8819195b9a595960c21b6064820152608401610455565b6001600160a01b038116600081815260076020908152604091829020805460ff1916600117905590519182527fd1e69e6dd07d34dc583c702b8750e91ff8acb71644cee730f4468341c9d416ad91015b60405180910390a150565b6001600160a01b03821660009081526002602090815260408083206001600160e01b031985168452825291829020600101805483518184028101840190945280845260609392830182828015610fb657602002820191906000526020600020905b81546001600160a01b03168152600190910190602001808311610f98575b5050505050905092915050565b6000546001600160a01b03163314610fed5760405162461bcd60e51b8152600401610455906120e0565b6001600160a01b038181166000908152600160205260409020541633148061101f57506000546001600160a01b031633145b61107e5760405162461bcd60e51b815260206004820152602a60248201527f52656769737472792d2d756e706175736550726f6a6563743a7065726d6973736044820152691a5bdb8819195b9a595960b21b6064820152608401610455565b6001600160a01b038116600081815260076020908152604091829020805460ff1916905590519182527fd1e69e6dd07d34dc583c702b8750e91ff8acb71644cee730f4468341c9d416ad9101610f2c565b6000546001600160a01b031633146110f95760405162461bcd60e51b8152600401610455906120e0565b6001600160a01b038116600090815260066020526040902054600480546001600160401b039092169160019190839081106111365761113661210d565b600091825260209182902060049190910201600301805460ff1916921515929092179091556040516001600160a01b03841681527f4a6b0717291c3a09d614a414cdaa8fa752377d86632eb4034c94d8c7f52b5c2591016109c3565b6000546001600160a01b031633146111bc5760405162461bcd60e51b8152600401610455906120e0565b6001600160a01b0381166000908152600660205260409020546004546001600160401b03909116906111f090600190612139565b816001600160401b03161015611340578060066000600460016004805490506112199190612139565b815481106112295761122961210d565b60009182526020808320600492830201546001600160a01b039081168552848201959095526040938401832080546001600160401b039790971667ffffffffffffffff1997881617905593871682526006909352208054909216909155805461129490600190612139565b815481106112a4576112a461210d565b90600052602060002090600402016004826001600160401b0316815481106112ce576112ce61210d565b60009182526020909120825460049092020180546001600160a01b039283166001600160a01b0319918216178255600180850154908301805491909416911617909155600280820190611323908401826122b6565b506003918201549101805460ff191660ff90921615159190911790555b60048054806113515761135161214c565b60008281526020812060046000199093019283020180546001600160a01b0319908116825560018201805490911690559061138f6002830182611959565b50600301805460ff1916905590556001600160a01b0382166000908152600560205260409081902090517fab73bba3d2886ca06868cd4aa789cc002ce431ee652c870764ec85b6cabb658f916113e6918590612395565b60405180910390a1604080516020808201835260008083526001600160a01b03861681526005909152919091209061141e90826123bf565b505050565b6000546001600160a01b0316331461144d5760405162461bcd60e51b8152600401610455906120e0565b60005b6004546001600160401b03821610156114b55760016004826001600160401b0316815481106114815761148161210d565b60009182526020909120600490910201600301805460ff1916911515919091179055806114ad81612475565b915050611450565b506040517f531f585f258599451bd136c99938c9b085270bdbaec44cdfe2486e104b6ae50590600090a1565b6000546001600160a01b0316331461150b5760405162461bcd60e51b8152600401610455906120e0565b60005b6004546001600160401b03821610156114b55760006004826001600160401b03168154811061153f5761153f61210d565b60009182526020909120600490910201600301805460ff19169115159190911790558061156b81612475565b91505061150e565b60408051606081018252838152602080820184905260008284018190526001600160a01b0389168152600282528381206001600160e01b03198816825282529290922081518051929391926115cb9284920190611996565b5060208281015180516115e492600185019201906119ec565b506040918201516002909101805491151560ff199283161790556001600160a01b038088166000818152600160208181528683208054958c166001600160a01b031990961695909517909455600384528582208054918201815582528382206008820401805460e08b901c60046007948516026101000a90810263ffffffff90910219909116179055918152915282902080549091169055517f87babd5627be9ce0cde8e797ddace144e324ba85e58b63b7a3e98aee1a067355906116b290879086908890879087906124a0565b60405180910390a15050505050565b604080516080810182526001600160a01b038087168252858116602083019081529282018581528415156060840152600480546001810182556000829052845191027f8a35acfbc15ff81a39ae7d344fd709f28e8600b4aa8c65c6b64bfe7fe36bd19b810180549285166001600160a01b031993841617815595517f8a35acfbc15ff81a39ae7d344fd709f28e8600b4aa8c65c6b64bfe7fe36bd19c8201805491909516921691909117909255519192917f8a35acfbc15ff81a39ae7d344fd709f28e8600b4aa8c65c6b64bfe7fe36bd19d909101906117a190826123bf565b50606091909101516003909101805460ff19169115159190911790556001600160a01b03841660009081526005602052604090206117df83826123bf565b506004546001600160a01b03851660009081526006602052604090819020805467ffffffffffffffff19166001600160401b0390931692909217909155517f7e9bae6821674aa2d9b92f2e98eabd4410524f6a1eb088551d0e727f78df524190611850908690869086908690612544565b60405180910390a150505050565b6001600160a01b038281166000908152600160205260409020541633148061189057506000546001600160a01b031633145b6118ee5760405162461bcd60e51b815260206004820152602960248201527f52656769737472792d2d706175736546756e6374696f6e3a7065726d697373696044820152681bdb8819195b9a595960ba1b6064820152608401610455565b6001600160a01b03821660009081526002602081815260408084206001600160e01b0319861685529091529182902001805460ff19166001179055517f3ec789ca270a19a21d684eafd603cc49dc39ac2e6f53196969d3eac6a338de2d906109c39084908490612245565b508054611965906120a6565b6000825580601f10611975575050565b601f0160209004906000526020600020908101906119939190611a49565b50565b8280548282559060005260206000209081019282156119dc579160200282015b828111156119dc57825182906119cc90826123bf565b50916020019190600101906119b6565b506119e8929150611a5e565b5090565b828054828255906000526020600020908101928215611a41579160200282015b82811115611a4157825182546001600160a01b0319166001600160a01b03909116178255602090920191600190910190611a0c565b506119e89291505b5b808211156119e85760008155600101611a4a565b808211156119e8576000611a728282611959565b50600101611a5e565b80356001600160a01b0381168114611a9257600080fd5b919050565b600060208284031215611aa957600080fd5b611ab282611a7b565b9392505050565b6000815180845260005b81811015611adf57602081850181015186830182015201611ac3565b506000602082860101526020601f19601f83011685010191505092915050565b602081526000611ab26020830184611ab9565b80356001600160e01b031981168114611a9257600080fd5b600080600060608486031215611b3f57600080fd5b611b4884611a7b565b9250611b5660208501611b12565b9150611b6460408501611a7b565b90509250925092565b60008060408385031215611b8057600080fd5b611b8983611a7b565b9150611b9760208401611b12565b90509250929050565b600081518084526020840193506020830160005b82811015611bdb5781516001600160a01b0316865260209586019590910190600101611bb4565b5093949350505050565b6020815260006080820183516060602085015281815180845260a08601915060a08160051b870101935060208301925060005b81811015611c4957609f19878603018352611c34858551611ab9565b94506020938401939290920191600101611c18565b505050506020840151838203601f19016040850152611c688282611ba0565b9150506040840151611c7e606085018215159052565b509392505050565b60008060408385031215611c9957600080fd5b611ca283611a7b565b9150611b9760208401611a7b565b634e487b7160e01b600052604160045260246000fd5b604051601f8201601f191681016001600160401b0381118282101715611cee57611cee611cb0565b604052919050565b6000806001600160401b03841115611d1057611d10611cb0565b50601f8301601f1916602001611d2581611cc6565b915050828152838383011115611d3a57600080fd5b828260208301376000602084830101529392505050565b60008060408385031215611d6457600080fd5b611d6d83611a7b565b915060208301356001600160401b03811115611d8857600080fd5b8301601f81018513611d9957600080fd5b611da885823560208401611cf6565b9150509250929050565b6000602082016020835280845180835260408501915060408160051b86010192506020860160005b82811015611e4957868503603f19018452815180516001600160a01b03908116875260208083015190911690870152604080820151608091880182905290611e2490880182611ab9565b6060928301511515979092019690965294506020938401939190910190600101611dda565b50929695505050505050565b602081526000611ab26020830184611ba0565b60006001600160401b03821115611e8157611e81611cb0565b5060051b60200190565b600082601f830112611e9c57600080fd5b611ab283833560208501611cf6565b600082601f830112611ebc57600080fd5b8135611ecf611eca82611e68565b611cc6565b8082825260208201915060208360051b860101925085831115611ef157600080fd5b602085015b83811015611f1557611f0781611a7b565b835260209283019201611ef6565b5095945050505050565b600080600080600060a08688031215611f3757600080fd5b611f4086611a7b565b9450611f4e60208701611a7b565b9350611f5c60408701611b12565b925060608601356001600160401b03811115611f7757600080fd5b8601601f81018813611f8857600080fd5b8035611f96611eca82611e68565b8082825260208201915060208360051b85010192508a831115611fb857600080fd5b602084015b83811015611ff95780356001600160401b03811115611fdb57600080fd5b611fea8d602083890101611e8b565b84525060209283019201611fbd565b50945050505060808601356001600160401b0381111561201857600080fd5b61202488828901611eab565b9150509295509295909350565b6000806000806080858703121561204757600080fd5b61205085611a7b565b935061205e60208601611a7b565b925060408501356001600160401b0381111561207957600080fd5b61208587828801611e8b565b9250506060850135801515811461209b57600080fd5b939692955090935050565b600181811c908216806120ba57607f821691505b6020821081036120da57634e487b7160e01b600052602260045260246000fd5b50919050565b6020808252601390820152721bdb9b1e481bdddb995c8818d85b8818d85b1b606a1b604082015260600190565b634e487b7160e01b600052603260045260246000fd5b634e487b7160e01b600052601160045260246000fd5b8181038181111561089657610896612123565b634e487b7160e01b600052603160045260246000fd5b6000815461216f816120a6565b80855260018216801561218957600181146121a5576121dc565b60ff1983166020870152602082151560051b87010193506121dc565b84600052602060002060005b838110156121d35781546020828a0101526001820191506020810190506121b1565b87016020019450505b50505092915050565b6001600160a01b03851681526001600160e01b03198416602082015260806040820181905260009061221990830185612162565b905060018060a01b038316606083015295945050505050565b602081526000611ab26020830184612162565b6001600160a01b039290921682526001600160e01b031916602082015260400190565b601f82111561141e57806000526020600020601f840160051c8101602085101561228f5750805b601f840160051c820191505b818110156122af576000815560010161229b565b5050505050565b8181036122c1575050565b6122cb82546120a6565b6001600160401b038111156122e2576122e2611cb0565b6122f6816122f084546120a6565b84612268565b6000601f82116001811461232d57600083156123125750848201545b600184901b600019600386901b1c198216175b8555506122af565b600085815260209020601f19841690600086815260209020845b838110156123675782860154825560019586019590910190602001612347565b50858310156123855781850154600019600388901b60f8161c191681555b5050505050600190811b01905550565b6040815260006123a86040830185612162565b905060018060a01b03831660208301529392505050565b81516001600160401b038111156123d8576123d8611cb0565b6123e6816122f084546120a6565b6020601f8211600181146124185760008315612312575081850151600184901b600019600386901b1c19821617612325565b600084815260208120601f198516915b828110156124485787850151825560209485019460019092019101612428565b50848210156124665786840151600019600387901b60f8161c191681555b50505050600190811b01905550565b60006001600160401b0382166001600160401b03810361249757612497612123565b60010192915050565b6001600160a01b0386811682526001600160e01b03198616602080840191909152908516604083015260a060608301819052845190830181905260009160c0600583901b8501810192908501918701845b828110156125225760bf1987860301845261250d858351611ab9565b945060209384019391909101906001016124f1565b5050505082810360808401526125388185611ba0565b98975050505050505050565b6001600160a01b0385811682528416602082015260806040820181905260009061257090830185611ab9565b905082151560608301529594505050505056fea2646970667358221220d7f98c5c1f0856bcd82f6ec168d8a15af4285a09bef2c1454e39fea786fd04ab64736f6c634300081a0033",
        "linkReferences": {}
    },
    "methodIdentifiers": {
        "addModule(address,address,string,bool)": "cc863b7d",
        "getAllModule()": "501e473f",
        "getDetectModAddress(address,bytes4)": "8c50221e",
        "getProtectInfo(address,bytes4)": "350da345",
        "initialize(address)": "c4d66de8",
        "moduleIndex(address)": "e6c2fa88",
        "moduleNames(address)": "076cea12",
        "pauseAllModule()": "ae289d6f",
        "pauseFunction(address,bytes4)": "d012b85b",
        "pauseMap(address)": "5523c1ad",
        "pauseModule(address)": "67d16507",
        "pauseProject(address)": "88db1a33",
        "register(address,address,bytes4,string[],address[])": "b7cc1b22",
        "removeModule(address)": "a0632461",
        "removeModuleForProject(address,bytes4,address)": "34f6eccb",
        "removeModuleInfo(address,bytes)": "7b461f9d",
        "setBlackListMode(address,bytes)": "3c9f09b5",
        "setOwner(address)": "13af4035",
        "setProjectManager(address,address)": "36b1ae16",
        "unpauseAllModule()": "a07ce13b",
        "unpauseFunction(address,bytes4)": "7e429e6e",
        "unpauseModule(address)": "985107cf",
        "unpauseProject(address)": "93232a6d",
        "updataModuleInfo(address,bytes)": "6be12c00"
    },
    "id": 8
}