{
    "abi": [
        {
            "type": "constructor",
            "inputs": [
                {
                    "name": "_etherStoreAddress",
                    "type": "address",
                    "internalType": "address"
                }
            ],
            "stateMutability": "nonpayable"
        },
        {
            "type": "receive",
            "stateMutability": "payable"
        },
        {
            "type": "function",
            "name": "AMOUNT",
            "inputs": [],
            "outputs": [
                {
                    "name": "",
                    "type": "uint256",
                    "internalType": "uint256"
                }
            ],
            "stateMutability": "view"
        },
        {
            "type": "function",
            "name": "etherStore",
            "inputs": [],
            "outputs": [
                {
                    "name": "",
                    "type": "address",
                    "internalType": "contract EtherStore"
                }
            ],
            "stateMutability": "view"
        },
        {
            "type": "function",
            "name": "getBalance",
            "inputs": [],
            "outputs": [
                {
                    "name": "",
                    "type": "uint256",
                    "internalType": "uint256"
                }
            ],
            "stateMutability": "view"
        },
        {
            "type": "function",
            "name": "sendTx",
            "inputs": [
                {
                    "name": "i",
                    "type": "uint256",
                    "internalType": "uint256"
                }
            ],
            "outputs": [],
            "stateMutability": "payable"
        }
    ],
    "bytecode": {
        "object": "0x6080604052348015600f57600080fd5b50604051610296380380610296833981016040819052602c916050565b600080546001600160a01b0319166001600160a01b0392909216919091179055607e565b600060208284031215606157600080fd5b81516001600160a01b0381168114607757600080fd5b9392505050565b6102098061008d6000396000f3fe6080604052600436106100435760003560e01c806312065fe01461004f5780638bebea9a14610071578063acd2e6e514610086578063d1789176146100be57600080fd5b3661004a57005b600080fd5b34801561005b57600080fd5b50475b6040519081526020015b60405180910390f35b61008461007f3660046101ba565b6100d8565b005b34801561009257600080fd5b506000546100a6906001600160a01b031681565b6040516001600160a01b039091168152602001610068565b3480156100ca57600080fd5b5061005e655af3107a400081565b655af3107a40003410156100eb57600080fd5b60008054906101000a90046001600160a01b03166001600160a01b031663d0e30db0655af3107a40006040518263ffffffff1660e01b81526004016000604051808303818588803b15801561013f57600080fd5b505af1158015610153573d6000803e3d6000fd5b5050600054604051632e1a7d4d60e01b8152600481018690526001600160a01b039091169350632e1a7d4d92506024019050600060405180830381600087803b15801561019f57600080fd5b505af11580156101b3573d6000803e3d6000fd5b5050505050565b6000602082840312156101cc57600080fd5b503591905056fea26469706673582212206f31f9d80789e225556eb8086529bdcf2a5b37a5cde2b22a3bd5b7e9b5c6945964736f6c634300081a0033",
        "linkReferences": {}
    },
    "methodIdentifiers": {
        "AMOUNT()": "d1789176",
        "etherStore()": "acd2e6e5",
        "getBalance()": "12065fe0",
        "sendTx(uint256)": "8bebea9a"
    },
    "id": 56
}