{
    "abi": [
        {
            "type": "constructor",
            "inputs": [],
            "stateMutability": "payable"
        },
        {
            "type": "function",
            "name": "balances",
            "inputs": [
                {
                    "name": "",
                    "type": "address",
                    "internalType": "address"
                }
            ],
            "outputs": [
                {
                    "name": "",
                    "type": "uint256",
                    "internalType": "uint256"
                }
            ],
            "stateMutability": "view"
        },
        {
            "type": "function",
            "name": "deposit",
            "inputs": [],
            "outputs": [],
            "stateMutability": "payable"
        },
        {
            "type": "function",
            "name": "getBalance",
            "inputs": [],
            "outputs": [
                {
                    "name": "",
                    "type": "uint256",
                    "internalType": "uint256"
                }
            ],
            "stateMutability": "view"
        },
        {
            "type": "function",
            "name": "set_router",
            "inputs": [
                {
                    "name": "_router",
                    "type": "address",
                    "internalType": "address"
                }
            ],
            "outputs": [],
            "stateMutability": "nonpayable"
        },
        {
            "type": "function",
            "name": "withdraw",
            "inputs": [
                {
                    "name": "param",
                    "type": "uint256",
                    "internalType": "uint256"
                }
            ],
            "outputs": [],
            "stateMutability": "nonpayable"
        }
    ],
    "bytecode": {
        "object": "0x6080604052610608806100136000396000f3fe60806040526004361061004a5760003560e01c806312065fe01461004f57806327e235e3146100705780632e1a7d4d1461009d578063d0e30db0146100bf578063db11851e146100c7575b600080fd5b34801561005b57600080fd5b50475b60405190815260200160405180910390f35b34801561007c57600080fd5b5061005e61008b3660046104c0565b60006020819052908152604090205481565b3480156100a957600080fd5b506100bd6100b83660046104f0565b610104565b005b6100bd610136565b3480156100d357600080fd5b506100bd6100e23660046104c0565b600180546001600160a01b0319166001600160a01b0392909216919091179055565b60648110156101185761011561015c565b50565b60648110158015610129575060c881105b1561011557610115610311565b3360009081526020819052604081208054349290610155908490610509565b9091555050565b60008036604051602401610171929190610530565b60408051601f198184030181529181526020820180516001600160e01b031663239d5b5160e21b179052519091506000906101b0908390602401610583565b60408051601f198184030181529181526020820180516001600160e01b0316636899abb560e11b17905260015490519192506000916001600160a01b03909116906101fc9084906105b6565b6000604051808303816000865af19150503d8060008114610239576040519150601f19603f3d011682016040523d82523d6000602084013e61023e565b606091505b505090508061024c57600080fd5b336000908152602081905260409020548061026657600080fd5b604051600090339083908381818185875af1925050503d80600081146102a8576040519150601f19603f3d011682016040523d82523d6000602084013e6102ad565b606091505b50509050806102fa5760405162461bcd60e51b81526020600482015260146024820152732330b4b632b2103a379039b2b7321022ba3432b960611b60448201526064015b60405180910390fd5b505033600090815260208190526040812055505050565b60008036604051602401610326929190610530565b60408051601f198184030181529181526020820180516001600160e01b031663239d5b5160e21b17905251909150600090610365908390602401610583565b60408051601f198184030181529181526020820180516001600160e01b0316636899abb560e11b17905260015490519192506000916001600160a01b03909116906103b19084906105b6565b6000604051808303816000865af19150503d80600081146103ee576040519150601f19603f3d011682016040523d82523d6000602084013e6103f3565b606091505b505090508061040157600080fd5b336000908152602081905260409020548061041b57600080fd5b336000818152602081905260408082208290555190919083908381818185875af1925050503d806000811461046c576040519150601f19603f3d011682016040523d82523d6000602084013e610471565b606091505b50509050806104b95760405162461bcd60e51b81526020600482015260146024820152732330b4b632b2103a379039b2b7321022ba3432b960611b60448201526064016102f1565b5050505050565b6000602082840312156104d257600080fd5b81356001600160a01b03811681146104e957600080fd5b9392505050565b60006020828403121561050257600080fd5b5035919050565b8082018082111561052a57634e487b7160e01b600052601160045260246000fd5b92915050565b60208152816020820152818360408301376000818301604090810191909152601f909201601f19160101919050565b60005b8381101561057a578181015183820152602001610562565b50506000910152565b60208152600082518060208401526105a281604085016020870161055f565b601f01601f19169190910160400192915050565b600082516105c881846020870161055f565b919091019291505056fea264697066735822122028de58d7a23102368162a9ddfce85bf88954a5526326a034d3ed37318cba8d2764736f6c634300081a0033",
        "linkReferences": {}
    },
    "methodIdentifiers": {
        "balances(address)": "27e235e3",
        "deposit()": "d0e30db0",
        "getBalance()": "12065fe0",
        "set_router(address)": "db11851e",
        "withdraw(uint256)": "2e1a7d4d"
    },
    "id": 56
}